{
  "_format": "hh-sol-artifact-1",
  "contractName": "Event",
  "sourceName": "contracts/Event.sol",
  "abi": [
    {
      "inputs": [
        {
          "internalType": "string",
          "name": "_eventName",
          "type": "string"
        },
        {
          "internalType": "uint256",
          "name": "_eventDate",
          "type": "uint256"
        },
        {
          "internalType": "address",
          "name": "_ticketContract",
          "type": "address"
        },
        {
          "internalType": "address",
          "name": "_marketPlace",
          "type": "address"
        }
      ],
      "stateMutability": "nonpayable",
      "type": "constructor"
    },
    {
      "inputs": [
        {
          "internalType": "address",
          "name": "owner",
          "type": "address"
        }
      ],
      "name": "OwnableInvalidOwner",
      "type": "error"
    },
    {
      "inputs": [
        {
          "internalType": "address",
          "name": "account",
          "type": "address"
        }
      ],
      "name": "OwnableUnauthorizedAccount",
      "type": "error"
    },
    {
      "inputs": [],
      "name": "ReentrancyGuardReentrantCall",
      "type": "error"
    },
    {
      "anonymous": false,
      "inputs": [],
      "name": "FundsWithdrawn",
      "type": "event"
    },
    {
      "anonymous": false,
      "inputs": [
        {
          "indexed": true,
          "internalType": "address",
          "name": "buyer",
          "type": "address"
        },
        {
          "indexed": false,
          "internalType": "uint256",
          "name": "numberOfTickets",
          "type": "uint256"
        },
        {
          "indexed": false,
          "internalType": "uint256",
          "name": "ticketId",
          "type": "uint256"
        }
      ],
      "name": "OfficialTicketPurchased",
      "type": "event"
    },
    {
      "anonymous": false,
      "inputs": [
        {
          "indexed": true,
          "internalType": "address",
          "name": "previousOwner",
          "type": "address"
        },
        {
          "indexed": true,
          "internalType": "address",
          "name": "newOwner",
          "type": "address"
        }
      ],
      "name": "OwnershipTransferred",
      "type": "event"
    },
    {
      "anonymous": false,
      "inputs": [
        {
          "indexed": true,
          "internalType": "address",
          "name": "ticketHolder",
          "type": "address"
        },
        {
          "indexed": false,
          "internalType": "uint256",
          "name": "numberOfTickets",
          "type": "uint256"
        },
        {
          "indexed": false,
          "internalType": "uint256",
          "name": "amount",
          "type": "uint256"
        }
      ],
      "name": "RefundsIssued",
      "type": "event"
    },
    {
      "anonymous": false,
      "inputs": [
        {
          "indexed": true,
          "internalType": "address",
          "name": "seller",
          "type": "address"
        },
        {
          "indexed": true,
          "internalType": "address",
          "name": "buyer",
          "type": "address"
        },
        {
          "indexed": false,
          "internalType": "uint256",
          "name": "numberOfTickets",
          "type": "uint256"
        },
        {
          "indexed": false,
          "internalType": "uint256",
          "name": "ticketId",
          "type": "uint256"
        },
        {
          "indexed": false,
          "internalType": "uint256",
          "name": "pricePerTicket",
          "type": "uint256"
        }
      ],
      "name": "ResaleTicketPurchased",
      "type": "event"
    },
    {
      "anonymous": false,
      "inputs": [
        {
          "indexed": true,
          "internalType": "address",
          "name": "ticketHolder",
          "type": "address"
        },
        {
          "indexed": false,
          "internalType": "uint256",
          "name": "numberOfTickets",
          "type": "uint256"
        },
        {
          "indexed": false,
          "internalType": "uint256",
          "name": "ticketId",
          "type": "uint256"
        }
      ],
      "name": "TicketUsed",
      "type": "event"
    },
    {
      "anonymous": false,
      "inputs": [
        {
          "indexed": true,
          "internalType": "address",
          "name": "voter",
          "type": "address"
        },
        {
          "indexed": false,
          "internalType": "uint256",
          "name": "numberOfVotes",
          "type": "uint256"
        }
      ],
      "name": "Voted",
      "type": "event"
    },
    {
      "inputs": [
        {
          "internalType": "address",
          "name": "seller",
          "type": "address"
        }
      ],
      "name": "checkApproval",
      "outputs": [
        {
          "internalType": "bool",
          "name": "",
          "type": "bool"
        }
      ],
      "stateMutability": "view",
      "type": "function"
    },
    {
      "inputs": [],
      "name": "eventDate",
      "outputs": [
        {
          "internalType": "uint256",
          "name": "",
          "type": "uint256"
        }
      ],
      "stateMutability": "view",
      "type": "function"
    },
    {
      "inputs": [],
      "name": "eventName",
      "outputs": [
        {
          "internalType": "string",
          "name": "",
          "type": "string"
        }
      ],
      "stateMutability": "view",
      "type": "function"
    },
    {
      "inputs": [
        {
          "internalType": "address",
          "name": "_address",
          "type": "address"
        },
        {
          "internalType": "uint256",
          "name": "ticketId",
          "type": "uint256"
        }
      ],
      "name": "getAccountBalance",
      "outputs": [
        {
          "internalType": "uint256",
          "name": "",
          "type": "uint256"
        }
      ],
      "stateMutability": "view",
      "type": "function"
    },
    {
      "inputs": [],
      "name": "getEventPhase",
      "outputs": [
        {
          "internalType": "enum Event.EventPhase",
          "name": "",
          "type": "uint8"
        }
      ],
      "stateMutability": "view",
      "type": "function"
    },
    {
      "inputs": [
        {
          "internalType": "uint256",
          "name": "_ticketId",
          "type": "uint256"
        }
      ],
      "name": "getTicketPrice",
      "outputs": [
        {
          "internalType": "uint256",
          "name": "",
          "type": "uint256"
        }
      ],
      "stateMutability": "view",
      "type": "function"
    },
    {
      "inputs": [
        {
          "internalType": "uint256",
          "name": "_ticketId",
          "type": "uint256"
        }
      ],
      "name": "getTicketQuantity",
      "outputs": [
        {
          "internalType": "uint256",
          "name": "",
          "type": "uint256"
        }
      ],
      "stateMutability": "view",
      "type": "function"
    },
    {
      "inputs": [
        {
          "internalType": "address",
          "name": "ticketHolder",
          "type": "address"
        }
      ],
      "name": "handleRefund",
      "outputs": [],
      "stateMutability": "nonpayable",
      "type": "function"
    },
    {
      "inputs": [],
      "name": "handleWithdraw",
      "outputs": [],
      "stateMutability": "nonpayable",
      "type": "function"
    },
    {
      "inputs": [
        {
          "internalType": "address",
          "name": "",
          "type": "address"
        }
      ],
      "name": "hasVoted",
      "outputs": [
        {
          "internalType": "bool",
          "name": "",
          "type": "bool"
        }
      ],
      "stateMutability": "view",
      "type": "function"
    },
    {
      "inputs": [],
      "name": "marketPlace",
      "outputs": [
        {
          "internalType": "address",
          "name": "",
          "type": "address"
        }
      ],
      "stateMutability": "view",
      "type": "function"
    },
    {
      "inputs": [
        {
          "internalType": "address",
          "name": "",
          "type": "address"
        }
      ],
      "name": "numberOfTicketsUsed",
      "outputs": [
        {
          "internalType": "uint256",
          "name": "",
          "type": "uint256"
        }
      ],
      "stateMutability": "view",
      "type": "function"
    },
    {
      "inputs": [],
      "name": "organiser",
      "outputs": [
        {
          "internalType": "address",
          "name": "",
          "type": "address"
        }
      ],
      "stateMutability": "view",
      "type": "function"
    },
    {
      "inputs": [],
      "name": "owner",
      "outputs": [
        {
          "internalType": "address",
          "name": "",
          "type": "address"
        }
      ],
      "stateMutability": "view",
      "type": "function"
    },
    {
      "inputs": [],
      "name": "phase",
      "outputs": [
        {
          "internalType": "enum Event.EventPhase",
          "name": "",
          "type": "uint8"
        }
      ],
      "stateMutability": "view",
      "type": "function"
    },
    {
      "inputs": [
        {
          "internalType": "address",
          "name": "buyer",
          "type": "address"
        },
        {
          "internalType": "uint256",
          "name": "ticketId",
          "type": "uint256"
        },
        {
          "internalType": "uint256",
          "name": "numberOfTickets",
          "type": "uint256"
        }
      ],
      "name": "processOfficialSale",
      "outputs": [],
      "stateMutability": "payable",
      "type": "function"
    },
    {
      "inputs": [
        {
          "internalType": "address",
          "name": "seller",
          "type": "address"
        },
        {
          "internalType": "address",
          "name": "buyer",
          "type": "address"
        },
        {
          "internalType": "uint256",
          "name": "ticketId",
          "type": "uint256"
        },
        {
          "internalType": "uint256",
          "name": "numberOfTickets",
          "type": "uint256"
        },
        {
          "internalType": "uint256",
          "name": "pricePerTicket",
          "type": "uint256"
        }
      ],
      "name": "processResale",
      "outputs": [],
      "stateMutability": "payable",
      "type": "function"
    },
    {
      "inputs": [
        {
          "internalType": "address",
          "name": "ticketHolder",
          "type": "address"
        },
        {
          "internalType": "uint256",
          "name": "ticketId",
          "type": "uint256"
        },
        {
          "internalType": "uint256",
          "name": "numberOfTickets",
          "type": "uint256"
        }
      ],
      "name": "processTicketUsage",
      "outputs": [],
      "stateMutability": "nonpayable",
      "type": "function"
    },
    {
      "inputs": [],
      "name": "refundThreshold",
      "outputs": [
        {
          "internalType": "uint256",
          "name": "",
          "type": "uint256"
        }
      ],
      "stateMutability": "view",
      "type": "function"
    },
    {
      "inputs": [],
      "name": "refundVotes",
      "outputs": [
        {
          "internalType": "uint256",
          "name": "",
          "type": "uint256"
        }
      ],
      "stateMutability": "view",
      "type": "function"
    },
    {
      "inputs": [],
      "name": "renounceOwnership",
      "outputs": [],
      "stateMutability": "nonpayable",
      "type": "function"
    },
    {
      "inputs": [],
      "name": "saleDate",
      "outputs": [
        {
          "internalType": "uint256",
          "name": "",
          "type": "uint256"
        }
      ],
      "stateMutability": "view",
      "type": "function"
    },
    {
      "inputs": [],
      "name": "ticketContract",
      "outputs": [
        {
          "internalType": "contract ITicketContract",
          "name": "",
          "type": "address"
        }
      ],
      "stateMutability": "view",
      "type": "function"
    },
    {
      "inputs": [],
      "name": "totalTicketsSold",
      "outputs": [
        {
          "internalType": "uint256",
          "name": "",
          "type": "uint256"
        }
      ],
      "stateMutability": "view",
      "type": "function"
    },
    {
      "inputs": [
        {
          "internalType": "address",
          "name": "newOwner",
          "type": "address"
        }
      ],
      "name": "transferOwnership",
      "outputs": [],
      "stateMutability": "nonpayable",
      "type": "function"
    },
    {
      "inputs": [
        {
          "internalType": "address",
          "name": "ticketHolder",
          "type": "address"
        }
      ],
      "name": "vote",
      "outputs": [],
      "stateMutability": "nonpayable",
      "type": "function"
    },
    {
      "inputs": [],
      "name": "votingPeriodEnd",
      "outputs": [
        {
          "internalType": "uint256",
          "name": "",
          "type": "uint256"
        }
      ],
      "stateMutability": "view",
      "type": "function"
    },
    {
      "inputs": [],
      "name": "votingPeriodStart",
      "outputs": [
        {
          "internalType": "uint256",
          "name": "",
          "type": "uint256"
        }
      ],
      "stateMutability": "view",
      "type": "function"
    }
  ],
  "bytecode": "0x608060405234801561001057600080fd5b5060405161493938038061493983398181016040528101906100329190610591565b33600073ffffffffffffffffffffffffffffffffffffffff168173ffffffffffffffffffffffffffffffffffffffff16036100a55760006040517f1e4fbdf700000000000000000000000000000000000000000000000000000000815260040161009c9190610623565b60405180910390fd5b6100b4816102c460201b60201c565b50600180819055504283116100fe576040517f08c379a00000000000000000000000000000000000000000000000000000000081526004016100f59061069b565b60405180910390fd5b600073ffffffffffffffffffffffffffffffffffffffff168273ffffffffffffffffffffffffffffffffffffffff160361016d576040517f08c379a00000000000000000000000000000000000000000000000000000000081526004016101649061072d565b60405180910390fd5b836002908161017c9190610964565b5033600460006101000a81548173ffffffffffffffffffffffffffffffffffffffff021916908373ffffffffffffffffffffffffffffffffffffffff1602179055508260078190555062278d00836101d49190610a65565b6006819055506203f480836101e99190610a99565b6008819055506203f4806008546102009190610a99565b600981905550605a600a819055506000600360006101000a81548160ff0219169083600481111561023457610233610acd565b5b021790555081600360016101000a81548173ffffffffffffffffffffffffffffffffffffffff021916908373ffffffffffffffffffffffffffffffffffffffff16021790555080600560006101000a81548173ffffffffffffffffffffffffffffffffffffffff021916908373ffffffffffffffffffffffffffffffffffffffff16021790555050505050610afc565b60008060009054906101000a900473ffffffffffffffffffffffffffffffffffffffff169050816000806101000a81548173ffffffffffffffffffffffffffffffffffffffff021916908373ffffffffffffffffffffffffffffffffffffffff1602179055508173ffffffffffffffffffffffffffffffffffffffff168173ffffffffffffffffffffffffffffffffffffffff167f8be0079c531659141344cd1fd0a4f28419497f9722a3daafe3b4186f6b6457e060405160405180910390a35050565b6000604051905090565b600080fd5b600080fd5b600080fd5b600080fd5b6000601f19601f8301169050919050565b7f4e487b7100000000000000000000000000000000000000000000000000000000600052604160045260246000fd5b6103ef826103a6565b810181811067ffffffffffffffff8211171561040e5761040d6103b7565b5b80604052505050565b6000610421610388565b905061042d82826103e6565b919050565b600067ffffffffffffffff82111561044d5761044c6103b7565b5b610456826103a6565b9050602081019050919050565b60005b83811015610481578082015181840152602081019050610466565b60008484015250505050565b60006104a061049b84610432565b610417565b9050828152602081018484840111156104bc576104bb6103a1565b5b6104c7848285610463565b509392505050565b600082601f8301126104e4576104e361039c565b5b81516104f484826020860161048d565b91505092915050565b6000819050919050565b610510816104fd565b811461051b57600080fd5b50565b60008151905061052d81610507565b92915050565b600073ffffffffffffffffffffffffffffffffffffffff82169050919050565b600061055e82610533565b9050919050565b61056e81610553565b811461057957600080fd5b50565b60008151905061058b81610565565b92915050565b600080600080608085870312156105ab576105aa610392565b5b600085015167ffffffffffffffff8111156105c9576105c8610397565b5b6105d5878288016104cf565b94505060206105e68782880161051e565b93505060406105f78782880161057c565b92505060606106088782880161057c565b91505092959194509250565b61061d81610553565b82525050565b60006020820190506106386000830184610614565b92915050565b600082825260208201905092915050565b7f4576656e742064617465206d75737420626520696e2074686520667574757265600082015250565b600061068560208361063e565b91506106908261064f565b602082019050919050565b600060208201905081810360008301526106b481610678565b9050919050565b7f506c65617365206465706c6f79207469636b657420636f6e747261637420666960008201527f7273740000000000000000000000000000000000000000000000000000000000602082015250565b600061071760238361063e565b9150610722826106bb565b604082019050919050565b600060208201905081810360008301526107468161070a565b9050919050565b600081519050919050565b7f4e487b7100000000000000000000000000000000000000000000000000000000600052602260045260246000fd5b6000600282049050600182168061079f57607f821691505b6020821081036107b2576107b1610758565b5b50919050565b60008190508160005260206000209050919050565b60006020601f8301049050919050565b600082821b905092915050565b60006008830261081a7fffffffffffffffffffffffffffffffffffffffffffffffffffffffffffffffff826107dd565b61082486836107dd565b95508019841693508086168417925050509392505050565b6000819050919050565b600061086161085c610857846104fd565b61083c565b6104fd565b9050919050565b6000819050919050565b61087b83610846565b61088f61088782610868565b8484546107ea565b825550505050565b600090565b6108a4610897565b6108af818484610872565b505050565b5b818110156108d3576108c860008261089c565b6001810190506108b5565b5050565b601f821115610918576108e9816107b8565b6108f2846107cd565b81016020851015610901578190505b61091561090d856107cd565b8301826108b4565b50505b505050565b600082821c905092915050565b600061093b6000198460080261091d565b1980831691505092915050565b6000610954838361092a565b9150826002028217905092915050565b61096d8261074d565b67ffffffffffffffff811115610986576109856103b7565b5b6109908254610787565b61099b8282856108d7565b600060209050601f8311600181146109ce57600084156109bc578287015190505b6109c68582610948565b865550610a2e565b601f1984166109dc866107b8565b60005b82811015610a04578489015182556001820191506020850194506020810190506109df565b86831015610a215784890151610a1d601f89168261092a565b8355505b6001600288020188555050505b505050505050565b7f4e487b7100000000000000000000000000000000000000000000000000000000600052601160045260246000fd5b6000610a70826104fd565b9150610a7b836104fd565b9250828203905081811115610a9357610a92610a36565b5b92915050565b6000610aa4826104fd565b9150610aaf836104fd565b9250828201905080821115610ac757610ac6610a36565b5b92915050565b7f4e487b7100000000000000000000000000000000000000000000000000000000600052602160045260246000fd5b613e2e80610b0b6000396000f3fe6080604052600436106101b75760003560e01c8063715018a6116100ec5780639f70d16e1161008a578063ec29e26c11610064578063ec29e26c146105d4578063f06fc96114610611578063f1cb5b891461064e578063f2fde38b14610665576101b7565b80639f70d16e14610550578063b1c9fe6e1461058d578063d21375eb146105b8576101b7565b80637e537486116100c65780637e537486146104925780638043c9c0146104bd5780638758e339146104e85780638da5cb5b14610525576101b7565b8063715018a61461041357806378fb29d71461042a5780637a77d90314610467576101b7565b80634bfbe5df1161015957806358a86e1d1161013357806358a86e1d1461036b57806364c280471461039657806365381b1c146103bf5780636dd7d8ea146103ea576101b7565b80634bfbe5df146102ec578063568472be14610317578063587974d014610342576101b7565b80632e25d2a6116101955780632e25d2a6146102405780633028c52e1461026b57806334701db814610296578063462d99c0146102c1576101b7565b806309eef43e146101bc578063109a7200146101f957806316fc486914610215575b600080fd5b3480156101c857600080fd5b506101e360048036038101906101de9190612e25565b61068e565b6040516101f09190612e6d565b60405180910390f35b610213600480360381019061020e9190612ebe565b6106ae565b005b34801561022157600080fd5b5061022a610d6f565b6040516102379190612f48565b60405180910390f35b34801561024c57600080fd5b50610255610d75565b6040516102629190612f72565b60405180910390f35b34801561027757600080fd5b50610280610d9b565b60405161028d9190612f48565b60405180910390f35b3480156102a257600080fd5b506102ab610da1565b6040516102b89190612f48565b60405180910390f35b3480156102cd57600080fd5b506102d6610da7565b6040516102e39190612f48565b60405180910390f35b3480156102f857600080fd5b50610301610dad565b60405161030e9190612f48565b60405180910390f35b34801561032357600080fd5b5061032c610db3565b6040516103399190612f48565b60405180910390f35b34801561034e57600080fd5b5061036960048036038101906103649190612f8d565b610db9565b005b34801561037757600080fd5b50610380611249565b60405161038d919061303f565b60405180910390f35b3480156103a257600080fd5b506103bd60048036038101906103b89190612e25565b61126f565b005b3480156103cb57600080fd5b506103d4611850565b6040516103e19190612f48565b60405180910390f35b3480156103f657600080fd5b50610411600480360381019061040c9190612e25565b611856565b005b34801561041f57600080fd5b50610428611d47565b005b34801561043657600080fd5b50610451600480360381019061044c919061305a565b611d5b565b60405161045e9190612f48565b60405180910390f35b34801561047357600080fd5b5061047c611e23565b60405161048991906130fe565b60405180910390f35b34801561049e57600080fd5b506104a7611e79565b6040516104b49190612f72565b60405180910390f35b3480156104c957600080fd5b506104d2611e9f565b6040516104df91906131a9565b60405180910390f35b3480156104f457600080fd5b5061050f600480360381019061050a91906131cb565b611f2d565b60405161051c9190612f48565b60405180910390f35b34801561053157600080fd5b5061053a611fd4565b6040516105479190612f72565b60405180910390f35b34801561055c57600080fd5b5061057760048036038101906105729190612e25565b611ffd565b6040516105849190612f48565b60405180910390f35b34801561059957600080fd5b506105a2612015565b6040516105af91906130fe565b60405180910390f35b6105d260048036038101906105cd9190612f8d565b612028565b005b3480156105e057600080fd5b506105fb60048036038101906105f69190612e25565b612524565b6040516106089190612e6d565b60405180910390f35b34801561061d57600080fd5b506106386004803603810190610633919061305a565b6126b3565b6040516106459190612f48565b60405180910390f35b34801561065a57600080fd5b5061066361276b565b005b34801561067157600080fd5b5061068c60048036038101906106879190612e25565b612a8c565b005b600d6020528060005260406000206000915054906101000a900460ff1681565b600060048111156106c2576106c1613087565b5b600360009054906101000a900460ff1660048111156106e4576106e3613087565b5b1480156106f357506006544210155b1561070157610700612b12565b5b6001600481111561071557610714613087565b5b600360009054906101000a900460ff16600481111561073757610736613087565b5b14801561074657506007544210155b1561075457610753612b12565b5b6002600481111561076857610767613087565b5b600360009054906101000a900460ff16600481111561078a57610789613087565b5b14801561079957506008544210155b156107a7576107a6612b12565b5b600360048111156107bb576107ba613087565b5b600360009054906101000a900460ff1660048111156107dd576107dc613087565b5b1480156107ec57506009544210155b156107fa576107f9612b12565b5b600180600481111561080f5761080e613087565b5b600360009054906101000a900460ff16600481111561083157610830613087565b5b14610871576040517f08c379a00000000000000000000000000000000000000000000000000000000081526004016108689061327d565b60405180910390fd5b600460009054906101000a900473ffffffffffffffffffffffffffffffffffffffff1673ffffffffffffffffffffffffffffffffffffffff163373ffffffffffffffffffffffffffffffffffffffff16148061091a5750600560009054906101000a900473ffffffffffffffffffffffffffffffffffffffff1673ffffffffffffffffffffffffffffffffffffffff163373ffffffffffffffffffffffffffffffffffffffff16145b610959576040517f08c379a00000000000000000000000000000000000000000000000000000000081526004016109509061330f565b60405180910390fd5b610961612b80565b670de0b6b3a764000082610975919061335e565b9150610980846126b3565b8211156109c2576040517f08c379a00000000000000000000000000000000000000000000000000000000081526004016109b9906133ec565b60405180910390fd5b82600360019054906101000a900473ffffffffffffffffffffffffffffffffffffffff1673ffffffffffffffffffffffffffffffffffffffff1662fdd58e88876040518363ffffffff1660e01b8152600401610a1f92919061340c565b602060405180830381865afa158015610a3c573d6000803e3d6000fd5b505050506040513d601f19601f82011682018060405250810190610a60919061344a565b1015610aa1576040517f08c379a0000000000000000000000000000000000000000000000000000000008152600401610a98906134c3565b60405180910390fd5b60008383610aaf919061335e565b905080341015610af4576040517f08c379a0000000000000000000000000000000000000000000000000000000008152600401610aeb9061352f565b60405180910390fd5b600360019054906101000a900473ffffffffffffffffffffffffffffffffffffffff1673ffffffffffffffffffffffffffffffffffffffff1663f242432a888888886040518563ffffffff1660e01b8152600401610b559493929190613586565b600060405180830381600087803b158015610b6f57600080fd5b505af1158015610b83573d6000803e3d6000fd5b505050508573ffffffffffffffffffffffffffffffffffffffff168773ffffffffffffffffffffffffffffffffffffffff167fe56e83cc34ee8e52e4ea84dd86f3157fadb76ec3fab7c903f719a4636f85ccd6868887604051610be8939291906135de565b60405180910390a360008773ffffffffffffffffffffffffffffffffffffffff1682604051610c1690613643565b60006040518083038185875af1925050503d8060008114610c53576040519150601f19603f3d011682016040523d82523d6000602084013e610c58565b606091505b5050905080610c9c576040517f08c379a0000000000000000000000000000000000000000000000000000000008152600401610c93906136a4565b60405180910390fd5b81341115610d5d5760008773ffffffffffffffffffffffffffffffffffffffff168334610cc991906136c4565b604051610cd590613643565b60006040518083038185875af1925050503d8060008114610d12576040519150601f19603f3d011682016040523d82523d6000602084013e610d17565b606091505b5050905080610d5b576040517f08c379a0000000000000000000000000000000000000000000000000000000008152600401610d5290613744565b60405180910390fd5b505b5050610d67612bc6565b505050505050565b600a5481565b600560009054906101000a900473ffffffffffffffffffffffffffffffffffffffff1681565b60085481565b600b5481565b60065481565b60075481565b600c5481565b60006004811115610dcd57610dcc613087565b5b600360009054906101000a900460ff166004811115610def57610dee613087565b5b148015610dfe57506006544210155b15610e0c57610e0b612b12565b5b60016004811115610e2057610e1f613087565b5b600360009054906101000a900460ff166004811115610e4257610e41613087565b5b148015610e5157506007544210155b15610e5f57610e5e612b12565b5b60026004811115610e7357610e72613087565b5b600360009054906101000a900460ff166004811115610e9557610e94613087565b5b148015610ea457506008544210155b15610eb257610eb1612b12565b5b60036004811115610ec657610ec5613087565b5b600360009054906101000a900460ff166004811115610ee857610ee7613087565b5b148015610ef757506009544210155b15610f0557610f04612b12565b5b6002806004811115610f1a57610f19613087565b5b600360009054906101000a900460ff166004811115610f3c57610f3b613087565b5b14610f7c576040517f08c379a0000000000000000000000000000000000000000000000000000000008152600401610f739061327d565b60405180910390fd5b600460009054906101000a900473ffffffffffffffffffffffffffffffffffffffff1673ffffffffffffffffffffffffffffffffffffffff163373ffffffffffffffffffffffffffffffffffffffff1614806110255750600560009054906101000a900473ffffffffffffffffffffffffffffffffffffffff1673ffffffffffffffffffffffffffffffffffffffff163373ffffffffffffffffffffffffffffffffffffffff16145b611064576040517f08c379a000000000000000000000000000000000000000000000000000000000815260040161105b9061330f565b60405180910390fd5b61106c612b80565b600e60008573ffffffffffffffffffffffffffffffffffffffff1673ffffffffffffffffffffffffffffffffffffffff16815260200190815260200160002054826110b79190613764565b600360019054906101000a900473ffffffffffffffffffffffffffffffffffffffff1673ffffffffffffffffffffffffffffffffffffffff1662fdd58e86866040518363ffffffff1660e01b815260040161111392919061340c565b602060405180830381865afa158015611130573d6000803e3d6000fd5b505050506040513d601f19601f82011682018060405250810190611154919061344a565b1015611195576040517f08c379a000000000000000000000000000000000000000000000000000000000815260040161118c906137e4565b60405180910390fd5b81600e60008673ffffffffffffffffffffffffffffffffffffffff1673ffffffffffffffffffffffffffffffffffffffff16815260200190815260200160002060008282546111e49190613764565b925050819055508373ffffffffffffffffffffffffffffffffffffffff167faa5eb4d6707e5715467e6d9ceb94a60d0ddfadff0bb1d854a226f3459485dc908385604051611233929190613804565b60405180910390a2611243612bc6565b50505050565b600360019054906101000a900473ffffffffffffffffffffffffffffffffffffffff1681565b6000600481111561128357611282613087565b5b600360009054906101000a900460ff1660048111156112a5576112a4613087565b5b1480156112b457506006544210155b156112c2576112c1612b12565b5b600160048111156112d6576112d5613087565b5b600360009054906101000a900460ff1660048111156112f8576112f7613087565b5b14801561130757506007544210155b1561131557611314612b12565b5b6002600481111561132957611328613087565b5b600360009054906101000a900460ff16600481111561134b5761134a613087565b5b14801561135a57506008544210155b1561136857611367612b12565b5b6003600481111561137c5761137b613087565b5b600360009054906101000a900460ff16600481111561139e5761139d613087565b5b1480156113ad57506009544210155b156113bb576113ba612b12565b5b600460009054906101000a900473ffffffffffffffffffffffffffffffffffffffff1673ffffffffffffffffffffffffffffffffffffffff163373ffffffffffffffffffffffffffffffffffffffff1614806114645750600560009054906101000a900473ffffffffffffffffffffffffffffffffffffffff1673ffffffffffffffffffffffffffffffffffffffff163373ffffffffffffffffffffffffffffffffffffffff16145b6114a3576040517f08c379a000000000000000000000000000000000000000000000000000000000815260040161149a9061330f565b60405180910390fd5b60048060048111156114b8576114b7613087565b5b600360009054906101000a900460ff1660048111156114da576114d9613087565b5b1461151a576040517f08c379a00000000000000000000000000000000000000000000000000000000081526004016115119061327d565b60405180910390fd5b611522612b80565b61152a612bcf565b611569576040517f08c379a000000000000000000000000000000000000000000000000000000000815260040161156090613879565b60405180910390fd5b6000600360019054906101000a900473ffffffffffffffffffffffffffffffffffffffff1673ffffffffffffffffffffffffffffffffffffffff1662fdd58e8460006040518363ffffffff1660e01b81526004016115c89291906138d4565b602060405180830381865afa1580156115e5573d6000803e3d6000fd5b505050506040513d601f19601f82011682018060405250810190611609919061344a565b90506000811161164e576040517f08c379a00000000000000000000000000000000000000000000000000000000081526004016116459061396f565b60405180910390fd5b600061165a60006126b3565b1161169a576040517f08c379a0000000000000000000000000000000000000000000000000000000008152600401611691906139db565b60405180910390fd5b60006116a660006126b3565b826116b1919061335e565b905060008473ffffffffffffffffffffffffffffffffffffffff16826040516116d990613643565b60006040518083038185875af1925050503d8060008114611716576040519150601f19603f3d011682016040523d82523d6000602084013e61171b565b606091505b505090508061175f576040517f08c379a000000000000000000000000000000000000000000000000000000000815260040161175690613a47565b60405180910390fd5b8473ffffffffffffffffffffffffffffffffffffffff167f21b080c8e6d04cc5f6d6cdc6bb0730a109eb1177cac808c7e6872adb48e7e59684846040516117a7929190613804565b60405180910390a2600360019054906101000a900473ffffffffffffffffffffffffffffffffffffffff1673ffffffffffffffffffffffffffffffffffffffff1663f5298aca866000866040518463ffffffff1660e01b815260040161180f93929190613a67565b600060405180830381600087803b15801561182957600080fd5b505af115801561183d573d6000803e3d6000fd5b5050505050505061184c612bc6565b5050565b60095481565b6000600481111561186a57611869613087565b5b600360009054906101000a900460ff16600481111561188c5761188b613087565b5b14801561189b57506006544210155b156118a9576118a8612b12565b5b600160048111156118bd576118bc613087565b5b600360009054906101000a900460ff1660048111156118df576118de613087565b5b1480156118ee57506007544210155b156118fc576118fb612b12565b5b600260048111156119105761190f613087565b5b600360009054906101000a900460ff16600481111561193257611931613087565b5b14801561194157506008544210155b1561194f5761194e612b12565b5b6003600481111561196357611962613087565b5b600360009054906101000a900460ff16600481111561198557611984613087565b5b14801561199457506009544210155b156119a2576119a1612b12565b5b600460009054906101000a900473ffffffffffffffffffffffffffffffffffffffff1673ffffffffffffffffffffffffffffffffffffffff163373ffffffffffffffffffffffffffffffffffffffff161480611a4b5750600560009054906101000a900473ffffffffffffffffffffffffffffffffffffffff1673ffffffffffffffffffffffffffffffffffffffff163373ffffffffffffffffffffffffffffffffffffffff16145b611a8a576040517f08c379a0000000000000000000000000000000000000000000000000000000008152600401611a819061330f565b60405180910390fd5b6003806004811115611a9f57611a9e613087565b5b600360009054906101000a900460ff166004811115611ac157611ac0613087565b5b14611b01576040517f08c379a0000000000000000000000000000000000000000000000000000000008152600401611af89061327d565b60405180910390fd5b611b09612b80565b600d60008373ffffffffffffffffffffffffffffffffffffffff1673ffffffffffffffffffffffffffffffffffffffff16815260200190815260200160002060009054906101000a900460ff1615611b96576040517f08c379a0000000000000000000000000000000000000000000000000000000008152600401611b8d90613aea565b60405180910390fd5b6000600360019054906101000a900473ffffffffffffffffffffffffffffffffffffffff1673ffffffffffffffffffffffffffffffffffffffff1662fdd58e8460006040518363ffffffff1660e01b8152600401611bf59291906138d4565b602060405180830381865afa158015611c12573d6000803e3d6000fd5b505050506040513d601f19601f82011682018060405250810190611c36919061344a565b905060008111611c7b576040517f08c379a0000000000000000000000000000000000000000000000000000000008152600401611c7290613b56565b60405180910390fd5b80600c6000828254611c8d9190613764565b925050819055506001600d60008573ffffffffffffffffffffffffffffffffffffffff1673ffffffffffffffffffffffffffffffffffffffff16815260200190815260200160002060006101000a81548160ff0219169083151502179055508273ffffffffffffffffffffffffffffffffffffffff167f4d99b957a2bc29a30ebd96a7be8e68fe50a3c701db28a91436490b7d53870ca482604051611d329190612f48565b60405180910390a250611d43612bc6565b5050565b611d4f612c6f565b611d596000612cf6565b565b6000600360019054906101000a900473ffffffffffffffffffffffffffffffffffffffff1673ffffffffffffffffffffffffffffffffffffffff1662fdd58e600460009054906101000a900473ffffffffffffffffffffffffffffffffffffffff16846040518363ffffffff1660e01b8152600401611ddb92919061340c565b602060405180830381865afa158015611df8573d6000803e3d6000fd5b505050506040513d601f19601f82011682018060405250810190611e1c919061344a565b9050919050565b6000600654421015611e385760009050611e76565b600754421015611e4b5760019050611e76565b600854421015611e5e5760029050611e76565b600954421015611e715760039050611e76565b600490505b90565b600460009054906101000a900473ffffffffffffffffffffffffffffffffffffffff1681565b60028054611eac90613ba5565b80601f0160208091040260200160405190810160405280929190818152602001828054611ed890613ba5565b8015611f255780601f10611efa57610100808354040283529160200191611f25565b820191906000526020600020905b815481529060010190602001808311611f0857829003601f168201915b505050505081565b6000600360019054906101000a900473ffffffffffffffffffffffffffffffffffffffff1673ffffffffffffffffffffffffffffffffffffffff1662fdd58e84846040518363ffffffff1660e01b8152600401611f8b92919061340c565b602060405180830381865afa158015611fa8573d6000803e3d6000fd5b505050506040513d601f19601f82011682018060405250810190611fcc919061344a565b905092915050565b60008060009054906101000a900473ffffffffffffffffffffffffffffffffffffffff16905090565b600e6020528060005260406000206000915090505481565b600360009054906101000a900460ff1681565b6000600481111561203c5761203b613087565b5b600360009054906101000a900460ff16600481111561205e5761205d613087565b5b14801561206d57506006544210155b1561207b5761207a612b12565b5b6001600481111561208f5761208e613087565b5b600360009054906101000a900460ff1660048111156120b1576120b0613087565b5b1480156120c057506007544210155b156120ce576120cd612b12565b5b600260048111156120e2576120e1613087565b5b600360009054906101000a900460ff16600481111561210457612103613087565b5b14801561211357506008544210155b1561212157612120612b12565b5b6003600481111561213557612134613087565b5b600360009054906101000a900460ff16600481111561215757612156613087565b5b14801561216657506009544210155b1561217457612173612b12565b5b600460009054906101000a900473ffffffffffffffffffffffffffffffffffffffff1673ffffffffffffffffffffffffffffffffffffffff163373ffffffffffffffffffffffffffffffffffffffff16148061221d5750600560009054906101000a900473ffffffffffffffffffffffffffffffffffffffff1673ffffffffffffffffffffffffffffffffffffffff163373ffffffffffffffffffffffffffffffffffffffff16145b61225c576040517f08c379a00000000000000000000000000000000000000000000000000000000081526004016122539061330f565b60405180910390fd5b600180600481111561227157612270613087565b5b600360009054906101000a900460ff16600481111561229357612292613087565b5b146122d3576040517f08c379a00000000000000000000000000000000000000000000000000000000081526004016122ca9061327d565b60405180910390fd5b6122db612b80565b6000826122e7856126b3565b6122f1919061335e565b905080341015612336576040517f08c379a000000000000000000000000000000000000000000000000000000000815260040161232d9061352f565b60405180910390fd5b600360019054906101000a900473ffffffffffffffffffffffffffffffffffffffff1673ffffffffffffffffffffffffffffffffffffffff1663f242432a600460009054906101000a900473ffffffffffffffffffffffffffffffffffffffff168787876040518563ffffffff1660e01b81526004016123b99493929190613586565b600060405180830381600087803b1580156123d357600080fd5b505af11580156123e7573d6000803e3d6000fd5b505050508473ffffffffffffffffffffffffffffffffffffffff167f01b5e1a8e8ee13b3674f6b2193ddcf73d005f4f419e0f82898a79d61a8d65f198486604051612433929190613804565b60405180910390a282600b600082825461244d9190613764565b92505081905550803411156125155760008573ffffffffffffffffffffffffffffffffffffffff16823461248191906136c4565b60405161248d90613643565b60006040518083038185875af1925050503d80600081146124ca576040519150601f19603f3d011682016040523d82523d6000602084013e6124cf565b606091505b5050905080612513576040517f08c379a000000000000000000000000000000000000000000000000000000000815260040161250a90613744565b60405180910390fd5b505b5061251e612bc6565b50505050565b6000600460009054906101000a900473ffffffffffffffffffffffffffffffffffffffff1673ffffffffffffffffffffffffffffffffffffffff163373ffffffffffffffffffffffffffffffffffffffff1614806125cf5750600560009054906101000a900473ffffffffffffffffffffffffffffffffffffffff1673ffffffffffffffffffffffffffffffffffffffff163373ffffffffffffffffffffffffffffffffffffffff16145b61260e576040517f08c379a00000000000000000000000000000000000000000000000000000000081526004016126059061330f565b60405180910390fd5b600360019054906101000a900473ffffffffffffffffffffffffffffffffffffffff1673ffffffffffffffffffffffffffffffffffffffff1663e985e9c583306040518363ffffffff1660e01b815260040161266b929190613bd6565b602060405180830381865afa158015612688573d6000803e3d6000fd5b505050506040513d601f19601f820116820180604052508101906126ac9190613c2b565b9050919050565b6000670de0b6b3a7640000600360019054906101000a900473ffffffffffffffffffffffffffffffffffffffff1673ffffffffffffffffffffffffffffffffffffffff1663f06fc961846040518263ffffffff1660e01b81526004016127199190612f48565b602060405180830381865afa158015612736573d6000803e3d6000fd5b505050506040513d601f19601f8201168201806040525081019061275a919061344a565b612764919061335e565b9050919050565b6000600481111561277f5761277e613087565b5b600360009054906101000a900460ff1660048111156127a1576127a0613087565b5b1480156127b057506006544210155b156127be576127bd612b12565b5b600160048111156127d2576127d1613087565b5b600360009054906101000a900460ff1660048111156127f4576127f3613087565b5b14801561280357506007544210155b1561281157612810612b12565b5b6002600481111561282557612824613087565b5b600360009054906101000a900460ff16600481111561284757612846613087565b5b14801561285657506008544210155b1561286457612863612b12565b5b6003600481111561287857612877613087565b5b600360009054906101000a900460ff16600481111561289a57612899613087565b5b1480156128a957506009544210155b156128b7576128b6612b12565b5b60048060048111156128cc576128cb613087565b5b600360009054906101000a900460ff1660048111156128ee576128ed613087565b5b1461292e576040517f08c379a00000000000000000000000000000000000000000000000000000000081526004016129259061327d565b60405180910390fd5b612936612c6f565b61293e612b80565b612946612bcf565b15612986576040517f08c379a000000000000000000000000000000000000000000000000000000000815260040161297d90613cca565b60405180910390fd5b6000600460009054906101000a900473ffffffffffffffffffffffffffffffffffffffff1673ffffffffffffffffffffffffffffffffffffffff16476040516129ce90613643565b60006040518083038185875af1925050503d8060008114612a0b576040519150601f19603f3d011682016040523d82523d6000602084013e612a10565b606091505b5050905080612a54576040517f08c379a0000000000000000000000000000000000000000000000000000000008152600401612a4b90613d36565b60405180910390fd5b7f8bc80bedab1880aef001dec8c051374ea7852d7539de5394888e1298d335bec560405160405180910390a150612a89612bc6565b50565b612a94612c6f565b600073ffffffffffffffffffffffffffffffffffffffff168173ffffffffffffffffffffffffffffffffffffffff1603612b065760006040517f1e4fbdf7000000000000000000000000000000000000000000000000000000008152600401612afd9190612f72565b60405180910390fd5b612b0f81612cf6565b50565b6001600360009054906101000a900460ff166004811115612b3657612b35613087565b5b612b409190613d63565b60ff166004811115612b5557612b54613087565b5b600360006101000a81548160ff02191690836004811115612b7957612b78613087565b5b0217905550565b600260015403612bbc576040517f3ee5aeb500000000000000000000000000000000000000000000000000000000815260040160405180910390fd5b6002600181905550565b60018081905550565b60006004806004811115612be657612be5613087565b5b600360009054906101000a900460ff166004811115612c0857612c07613087565b5b14612c48576040517f08c379a0000000000000000000000000000000000000000000000000000000008152600401612c3f9061327d565b60405180910390fd5b600a54600b546064600c54612c5d919061335e565b612c679190613dc7565b101591505090565b612c77612dba565b73ffffffffffffffffffffffffffffffffffffffff16612c95611fd4565b73ffffffffffffffffffffffffffffffffffffffff1614612cf457612cb8612dba565b6040517f118cdaa7000000000000000000000000000000000000000000000000000000008152600401612ceb9190612f72565b60405180910390fd5b565b60008060009054906101000a900473ffffffffffffffffffffffffffffffffffffffff169050816000806101000a81548173ffffffffffffffffffffffffffffffffffffffff021916908373ffffffffffffffffffffffffffffffffffffffff1602179055508173ffffffffffffffffffffffffffffffffffffffff168173ffffffffffffffffffffffffffffffffffffffff167f8be0079c531659141344cd1fd0a4f28419497f9722a3daafe3b4186f6b6457e060405160405180910390a35050565b600033905090565b600080fd5b600073ffffffffffffffffffffffffffffffffffffffff82169050919050565b6000612df282612dc7565b9050919050565b612e0281612de7565b8114612e0d57600080fd5b50565b600081359050612e1f81612df9565b92915050565b600060208284031215612e3b57612e3a612dc2565b5b6000612e4984828501612e10565b91505092915050565b60008115159050919050565b612e6781612e52565b82525050565b6000602082019050612e826000830184612e5e565b92915050565b6000819050919050565b612e9b81612e88565b8114612ea657600080fd5b50565b600081359050612eb881612e92565b92915050565b600080600080600060a08688031215612eda57612ed9612dc2565b5b6000612ee888828901612e10565b9550506020612ef988828901612e10565b9450506040612f0a88828901612ea9565b9350506060612f1b88828901612ea9565b9250506080612f2c88828901612ea9565b9150509295509295909350565b612f4281612e88565b82525050565b6000602082019050612f5d6000830184612f39565b92915050565b612f6c81612de7565b82525050565b6000602082019050612f876000830184612f63565b92915050565b600080600060608486031215612fa657612fa5612dc2565b5b6000612fb486828701612e10565b9350506020612fc586828701612ea9565b9250506040612fd686828701612ea9565b9150509250925092565b6000819050919050565b6000613005613000612ffb84612dc7565b612fe0565b612dc7565b9050919050565b600061301782612fea565b9050919050565b60006130298261300c565b9050919050565b6130398161301e565b82525050565b60006020820190506130546000830184613030565b92915050565b6000602082840312156130705761306f612dc2565b5b600061307e84828501612ea9565b91505092915050565b7f4e487b7100000000000000000000000000000000000000000000000000000000600052602160045260246000fd5b600581106130c7576130c6613087565b5b50565b60008190506130d8826130b6565b919050565b60006130e8826130ca565b9050919050565b6130f8816130dd565b82525050565b600060208201905061311360008301846130ef565b92915050565b600081519050919050565b600082825260208201905092915050565b60005b83811015613153578082015181840152602081019050613138565b60008484015250505050565b6000601f19601f8301169050919050565b600061317b82613119565b6131858185613124565b9350613195818560208601613135565b61319e8161315f565b840191505092915050565b600060208201905081810360008301526131c38184613170565b905092915050565b600080604083850312156131e2576131e1612dc2565b5b60006131f085828601612e10565b925050602061320185828601612ea9565b9150509250929050565b7f7265717565737465642073657276696365206973206e6f7420617661696c616260008201527f6c65206e6f770000000000000000000000000000000000000000000000000000602082015250565b6000613267602683613124565b91506132728261320b565b604082019050919050565b600060208201905081810360008301526132968161325a565b9050919050565b7f4f6e6c7920617070726f76656420706c6174666f726d732063616e2063616c6c60008201527f20746869732066756e6374696f6e000000000000000000000000000000000000602082015250565b60006132f9602e83613124565b91506133048261329d565b604082019050919050565b60006020820190508181036000830152613328816132ec565b9050919050565b7f4e487b7100000000000000000000000000000000000000000000000000000000600052601160045260246000fd5b600061336982612e88565b915061337483612e88565b925082820261338281612e88565b915082820484148315176133995761339861332f565b5b5092915050565b7f5072696365206361702065786365656465640000000000000000000000000000600082015250565b60006133d6601283613124565b91506133e1826133a0565b602082019050919050565b60006020820190508181036000830152613405816133c9565b9050919050565b60006040820190506134216000830185612f63565b61342e6020830184612f39565b9392505050565b60008151905061344481612e92565b92915050565b6000602082840312156134605761345f612dc2565b5b600061346e84828501613435565b91505092915050565b7f4e6f7420656e6f756768207469636b65747320746f2073656c6c000000000000600082015250565b60006134ad601a83613124565b91506134b882613477565b602082019050919050565b600060208201905081810360008301526134dc816134a0565b9050919050565b7f4e6f7420656e6f756768204554482073656e7421000000000000000000000000600082015250565b6000613519601483613124565b9150613524826134e3565b602082019050919050565b600060208201905081810360008301526135488161350c565b9050919050565b600082825260208201905092915050565b50565b600061357060008361354f565b915061357b82613560565b600082019050919050565b600060a08201905061359b6000830187612f63565b6135a86020830186612f63565b6135b56040830185612f39565b6135c26060830184612f39565b81810360808301526135d381613563565b905095945050505050565b60006060820190506135f36000830186612f39565b6136006020830185612f39565b61360d6040830184612f39565b949350505050565b600081905092915050565b600061362d600083613615565b915061363882613560565b600082019050919050565b600061364e82613620565b9150819050919050565b7f5061796d656e7420746f2073656c6c6572206661696c65640000000000000000600082015250565b600061368e601883613124565b915061369982613658565b602082019050919050565b600060208201905081810360008301526136bd81613681565b9050919050565b60006136cf82612e88565b91506136da83612e88565b92508282039050818111156136f2576136f161332f565b5b92915050565b7f4578636573732066756e64732072657475726e206661696c6564000000000000600082015250565b600061372e601a83613124565b9150613739826136f8565b602082019050919050565b6000602082019050818103600083015261375d81613721565b9050919050565b600061376f82612e88565b915061377a83612e88565b92508282019050808211156137925761379161332f565b5b92915050565b7f4e6f7420656e6f756768207469636b65747320746f2075736500000000000000600082015250565b60006137ce601983613124565b91506137d982613798565b602082019050919050565b600060208201905081810360008301526137fd816137c1565b9050919050565b60006040820190506138196000830185612f39565b6138266020830184612f39565b9392505050565b7f526566756e64207468726573686f6c64206e6f74206d65740000000000000000600082015250565b6000613863601883613124565b915061386e8261382d565b602082019050919050565b6000602082019050818103600083015261389281613856565b9050919050565b6000819050919050565b60006138be6138b96138b484613899565b612fe0565b612e88565b9050919050565b6138ce816138a3565b82525050565b60006040820190506138e96000830185612f63565b6138f660208301846138c5565b9392505050565b7f4164647265737320646f6573206e6f7420686f6c6420616e79207469636b657460008201527f7300000000000000000000000000000000000000000000000000000000000000602082015250565b6000613959602183613124565b9150613964826138fd565b604082019050919050565b600060208201905081810360008301526139888161394c565b9050919050565b7f5469636b6574207072696365206e6f7420736574207965740000000000000000600082015250565b60006139c5601883613124565b91506139d08261398f565b602082019050919050565b600060208201905081810360008301526139f4816139b8565b9050919050565b7f526566756e64206661696c656421000000000000000000000000000000000000600082015250565b6000613a31600e83613124565b9150613a3c826139fb565b602082019050919050565b60006020820190508181036000830152613a6081613a24565b9050919050565b6000606082019050613a7c6000830186612f63565b613a8960208301856138c5565b613a966040830184612f39565b949350505050565b7f596f75206861766520616c726561647920766f74656400000000000000000000600082015250565b6000613ad4601683613124565b9150613adf82613a9e565b602082019050919050565b60006020820190508181036000830152613b0381613ac7565b9050919050565b7f596f75206d7573742068617665207469636b65747320746f20766f7465000000600082015250565b6000613b40601d83613124565b9150613b4b82613b0a565b602082019050919050565b60006020820190508181036000830152613b6f81613b33565b9050919050565b7f4e487b7100000000000000000000000000000000000000000000000000000000600052602260045260246000fd5b60006002820490506001821680613bbd57607f821691505b602082108103613bd057613bcf613b76565b5b50919050565b6000604082019050613beb6000830185612f63565b613bf86020830184612f63565b9392505050565b613c0881612e52565b8114613c1357600080fd5b50565b600081519050613c2581613bff565b92915050565b600060208284031215613c4157613c40612dc2565b5b6000613c4f84828501613c16565b91505092915050565b7f4e6f207363616d2120526566756e64207468726573686f6c64206973206d657460008201527f2100000000000000000000000000000000000000000000000000000000000000602082015250565b6000613cb4602183613124565b9150613cbf82613c58565b604082019050919050565b60006020820190508181036000830152613ce381613ca7565b9050919050565b7f5769746864726177616c206f662066756e6473206661696c6564000000000000600082015250565b6000613d20601a83613124565b9150613d2b82613cea565b602082019050919050565b60006020820190508181036000830152613d4f81613d13565b9050919050565b600060ff82169050919050565b6000613d6e82613d56565b9150613d7983613d56565b9250828201905060ff811115613d9257613d9161332f565b5b92915050565b7f4e487b7100000000000000000000000000000000000000000000000000000000600052601260045260246000fd5b6000613dd282612e88565b9150613ddd83612e88565b925082613ded57613dec613d98565b5b82820490509291505056fea2646970667358221220b1490ec9b52f661f7fbf0d06cfdcac008230fa9f7886c7d523bd1417f87c415b64736f6c634300081c0033",
  "linkReferences": {},
  "deployedLinkReferences": {}
}