{
  "_format": "hh-sol-artifact-1",
  "contractName": "Marketplace",
  "sourceName": "contracts/Marketplace.sol",
  "abi": [
    {
      "inputs": [],
      "stateMutability": "nonpayable",
      "type": "constructor"
    },
    {
      "inputs": [
        {
          "internalType": "address",
          "name": "owner",
          "type": "address"
        }
      ],
      "name": "OwnableInvalidOwner",
      "type": "error"
    },
    {
      "inputs": [
        {
          "internalType": "address",
          "name": "account",
          "type": "address"
        }
      ],
      "name": "OwnableUnauthorizedAccount",
      "type": "error"
    },
    {
      "inputs": [],
      "name": "ReentrancyGuardReentrantCall",
      "type": "error"
    },
    {
      "anonymous": false,
      "inputs": [
        {
          "indexed": false,
          "internalType": "address",
          "name": "organiser",
          "type": "address"
        },
        {
          "indexed": false,
          "internalType": "string",
          "name": "eventName",
          "type": "string"
        },
        {
          "indexed": false,
          "internalType": "uint256",
          "name": "listingId",
          "type": "uint256"
        },
        {
          "indexed": false,
          "internalType": "uint256",
          "name": "quantity",
          "type": "uint256"
        }
      ],
      "name": "OfficialTicketListed",
      "type": "event"
    },
    {
      "anonymous": false,
      "inputs": [
        {
          "indexed": false,
          "internalType": "address",
          "name": "buyer",
          "type": "address"
        },
        {
          "indexed": false,
          "internalType": "string",
          "name": "eventName",
          "type": "string"
        },
        {
          "indexed": false,
          "internalType": "uint256",
          "name": "listingId",
          "type": "uint256"
        },
        {
          "indexed": false,
          "internalType": "uint256",
          "name": "quantity",
          "type": "uint256"
        }
      ],
      "name": "OfficialTicketPurchased",
      "type": "event"
    },
    {
      "anonymous": false,
      "inputs": [
        {
          "indexed": true,
          "internalType": "address",
          "name": "previousOwner",
          "type": "address"
        },
        {
          "indexed": true,
          "internalType": "address",
          "name": "newOwner",
          "type": "address"
        }
      ],
      "name": "OwnershipTransferred",
      "type": "event"
    },
    {
      "anonymous": false,
      "inputs": [
        {
          "indexed": false,
          "internalType": "address",
          "name": "seller",
          "type": "address"
        },
        {
          "indexed": false,
          "internalType": "string",
          "name": "eventName",
          "type": "string"
        },
        {
          "indexed": false,
          "internalType": "uint256",
          "name": "listingId",
          "type": "uint256"
        },
        {
          "indexed": false,
          "internalType": "uint256",
          "name": "quantity",
          "type": "uint256"
        }
      ],
      "name": "ResaleTicketListed",
      "type": "event"
    },
    {
      "anonymous": false,
      "inputs": [
        {
          "indexed": false,
          "internalType": "address",
          "name": "buyer",
          "type": "address"
        },
        {
          "indexed": false,
          "internalType": "string",
          "name": "eventName",
          "type": "string"
        },
        {
          "indexed": false,
          "internalType": "uint256",
          "name": "listingId",
          "type": "uint256"
        },
        {
          "indexed": false,
          "internalType": "uint256",
          "name": "quantity",
          "type": "uint256"
        }
      ],
      "name": "ResaleTicketPurchased",
      "type": "event"
    },
    {
      "inputs": [
        {
          "internalType": "address",
          "name": "",
          "type": "address"
        }
      ],
      "name": "allowedOrganisers",
      "outputs": [
        {
          "internalType": "bool",
          "name": "",
          "type": "bool"
        }
      ],
      "stateMutability": "view",
      "type": "function"
    },
    {
      "inputs": [
        {
          "internalType": "address",
          "name": "Organiser",
          "type": "address"
        }
      ],
      "name": "approveOrganiser",
      "outputs": [],
      "stateMutability": "nonpayable",
      "type": "function"
    },
    {
      "inputs": [
        {
          "internalType": "address",
          "name": "eventContract",
          "type": "address"
        },
        {
          "internalType": "uint256",
          "name": "listingId",
          "type": "uint256"
        },
        {
          "internalType": "uint256",
          "name": "quantity",
          "type": "uint256"
        }
      ],
      "name": "buyOfficialTicket",
      "outputs": [],
      "stateMutability": "payable",
      "type": "function"
    },
    {
      "inputs": [
        {
          "internalType": "address",
          "name": "eventContract",
          "type": "address"
        },
        {
          "internalType": "uint256",
          "name": "listingId",
          "type": "uint256"
        },
        {
          "internalType": "uint256",
          "name": "quantity",
          "type": "uint256"
        }
      ],
      "name": "buyResaleTicket",
      "outputs": [],
      "stateMutability": "payable",
      "type": "function"
    },
    {
      "inputs": [
        {
          "internalType": "address",
          "name": "eventContract",
          "type": "address"
        }
      ],
      "name": "claimRefund",
      "outputs": [],
      "stateMutability": "nonpayable",
      "type": "function"
    },
    {
      "inputs": [
        {
          "internalType": "address",
          "name": "eventContract",
          "type": "address"
        },
        {
          "internalType": "uint256",
          "name": "ticketId",
          "type": "uint256"
        }
      ],
      "name": "createOfficialListing",
      "outputs": [],
      "stateMutability": "nonpayable",
      "type": "function"
    },
    {
      "inputs": [
        {
          "internalType": "address",
          "name": "eventContract",
          "type": "address"
        },
        {
          "internalType": "uint256",
          "name": "ticketPrice",
          "type": "uint256"
        },
        {
          "internalType": "uint256",
          "name": "ticketId",
          "type": "uint256"
        },
        {
          "internalType": "uint256",
          "name": "quantity",
          "type": "uint256"
        }
      ],
      "name": "createResaleListing",
      "outputs": [],
      "stateMutability": "nonpayable",
      "type": "function"
    },
    {
      "inputs": [],
      "name": "officialListingCount",
      "outputs": [
        {
          "internalType": "uint256",
          "name": "",
          "type": "uint256"
        }
      ],
      "stateMutability": "view",
      "type": "function"
    },
    {
      "inputs": [
        {
          "internalType": "uint256",
          "name": "",
          "type": "uint256"
        }
      ],
      "name": "officialListings",
      "outputs": [
        {
          "internalType": "address",
          "name": "seller",
          "type": "address"
        },
        {
          "internalType": "string",
          "name": "eventName",
          "type": "string"
        },
        {
          "internalType": "uint256",
          "name": "ticketId",
          "type": "uint256"
        },
        {
          "internalType": "uint256",
          "name": "quantity",
          "type": "uint256"
        },
        {
          "internalType": "uint256",
          "name": "pricePerTicket",
          "type": "uint256"
        },
        {
          "internalType": "address",
          "name": "eventContractAddress",
          "type": "address"
        }
      ],
      "stateMutability": "view",
      "type": "function"
    },
    {
      "inputs": [],
      "name": "owner",
      "outputs": [
        {
          "internalType": "address",
          "name": "",
          "type": "address"
        }
      ],
      "stateMutability": "view",
      "type": "function"
    },
    {
      "inputs": [],
      "name": "renounceOwnership",
      "outputs": [],
      "stateMutability": "nonpayable",
      "type": "function"
    },
    {
      "inputs": [],
      "name": "resaleListingCount",
      "outputs": [
        {
          "internalType": "uint256",
          "name": "",
          "type": "uint256"
        }
      ],
      "stateMutability": "view",
      "type": "function"
    },
    {
      "inputs": [
        {
          "internalType": "uint256",
          "name": "",
          "type": "uint256"
        }
      ],
      "name": "resaleListings",
      "outputs": [
        {
          "internalType": "address",
          "name": "seller",
          "type": "address"
        },
        {
          "internalType": "string",
          "name": "eventName",
          "type": "string"
        },
        {
          "internalType": "uint256",
          "name": "ticketId",
          "type": "uint256"
        },
        {
          "internalType": "uint256",
          "name": "quantity",
          "type": "uint256"
        },
        {
          "internalType": "uint256",
          "name": "pricePerTicket",
          "type": "uint256"
        },
        {
          "internalType": "address",
          "name": "eventContractAddress",
          "type": "address"
        }
      ],
      "stateMutability": "view",
      "type": "function"
    },
    {
      "inputs": [
        {
          "internalType": "address",
          "name": "newOwner",
          "type": "address"
        }
      ],
      "name": "transferOwnership",
      "outputs": [],
      "stateMutability": "nonpayable",
      "type": "function"
    },
    {
      "inputs": [
        {
          "internalType": "address",
          "name": "eventContract",
          "type": "address"
        },
        {
          "internalType": "uint256",
          "name": "ticketId",
          "type": "uint256"
        },
        {
          "internalType": "uint256",
          "name": "quantity",
          "type": "uint256"
        }
      ],
      "name": "useTicket",
      "outputs": [],
      "stateMutability": "nonpayable",
      "type": "function"
    },
    {
      "inputs": [
        {
          "internalType": "address",
          "name": "eventContract",
          "type": "address"
        }
      ],
      "name": "voteForRefund",
      "outputs": [],
      "stateMutability": "nonpayable",
      "type": "function"
    }
  ],
  "bytecode": "0x608060405234801561001057600080fd5b5033600073ffffffffffffffffffffffffffffffffffffffff168173ffffffffffffffffffffffffffffffffffffffff16036100845760006040517f1e4fbdf700000000000000000000000000000000000000000000000000000000815260040161007b91906101a5565b60405180910390fd5b610093816100a060201b60201c565b50600180819055506101c0565b60008060009054906101000a900473ffffffffffffffffffffffffffffffffffffffff169050816000806101000a81548173ffffffffffffffffffffffffffffffffffffffff021916908373ffffffffffffffffffffffffffffffffffffffff1602179055508173ffffffffffffffffffffffffffffffffffffffff168173ffffffffffffffffffffffffffffffffffffffff167f8be0079c531659141344cd1fd0a4f28419497f9722a3daafe3b4186f6b6457e060405160405180910390a35050565b600073ffffffffffffffffffffffffffffffffffffffff82169050919050565b600061018f82610164565b9050919050565b61019f81610184565b82525050565b60006020820190506101ba6000830184610196565b92915050565b6122b5806101cf6000396000f3fe6080604052600436106100f35760003560e01c8063bffa55d51161008a578063ee11e7d511610059578063ee11e7d5146102fb578063f16581bb14610326578063f2fde38b14610342578063f727361b1461036b576100f3565b8063bffa55d514610255578063db370e6b1461027e578063e278c3ff146102a7578063ebe3e8d5146102d0576100f3565b80638da5cb5b116100c65780638da5cb5b1461017d57806390200536146101a857806395023f35146101d1578063b41b4bd414610213576100f3565b8063222e5760146100f857806348842b8814610121578063715018a61461014a578063827f916614610161575b600080fd5b34801561010457600080fd5b5061011f600480360381019061011a91906116ff565b6103a8565b005b34801561012d57600080fd5b5061014860048036038101906101439190611752565b61041c565b005b34801561015657600080fd5b5061015f6107af565b005b61017b600480360381019061017691906116ff565b6107c3565b005b34801561018957600080fd5b50610192610a4d565b60405161019f91906117c8565b60405180910390f35b3480156101b457600080fd5b506101cf60048036038101906101ca91906117e3565b610a76565b005b3480156101dd57600080fd5b506101f860048036038101906101f39190611810565b610ae4565b60405161020a969594939291906118dc565b60405180910390f35b34801561021f57600080fd5b5061023a60048036038101906102359190611810565b610be8565b60405161024c969594939291906118dc565b60405180910390f35b34801561026157600080fd5b5061027c600480360381019061027791906117e3565b610cec565b005b34801561028a57600080fd5b506102a560048036038101906102a091906117e3565b610d5a565b005b3480156102b357600080fd5b506102ce60048036038101906102c99190611944565b610dbd565b005b3480156102dc57600080fd5b506102e5611148565b6040516102f29190611984565b60405180910390f35b34801561030757600080fd5b5061031061114e565b60405161031d9190611984565b60405180910390f35b610340600480360381019061033b91906116ff565b611154565b005b34801561034e57600080fd5b50610369600480360381019061036491906117e3565b6113b2565b005b34801561037757600080fd5b50610392600480360381019061038d91906117e3565b611438565b60405161039f91906119ba565b60405180910390f35b8273ffffffffffffffffffffffffffffffffffffffff1663587974d03384846040518463ffffffff1660e01b81526004016103e5939291906119d5565b600060405180830381600087803b1580156103ff57600080fd5b505af1158015610413573d6000803e3d6000fd5b50505050505050565b6000849050818173ffffffffffffffffffffffffffffffffffffffff16638758e33933866040518363ffffffff1660e01b815260040161045d929190611a0c565b602060405180830381865afa15801561047a573d6000803e3d6000fd5b505050506040513d601f19601f8201168201806040525081019061049e9190611a4a565b10156104df576040517f08c379a00000000000000000000000000000000000000000000000000000000081526004016104d690611ac3565b60405180910390fd5b8073ffffffffffffffffffffffffffffffffffffffff1663ec29e26c336040518263ffffffff1660e01b815260040161051891906117c8565b602060405180830381865afa158015610535573d6000803e3d6000fd5b505050506040513d601f19601f820116820180604052508101906105599190611b0f565b610598576040517f08c379a000000000000000000000000000000000000000000000000000000000815260040161058f90611bae565b60405180910390fd5b60008173ffffffffffffffffffffffffffffffffffffffff16638043c9c06040518163ffffffff1660e01b8152600401600060405180830381865afa1580156105e5573d6000803e3d6000fd5b505050506040513d6000823e3d601f19601f8201168201806040525081019061060e9190611cf4565b90506040518060c001604052803373ffffffffffffffffffffffffffffffffffffffff168152602001828152602001858152602001848152602001670de0b6b3a76400008761065d9190611d6c565b81526020018773ffffffffffffffffffffffffffffffffffffffff168152506005600060066000815461068f90611dae565b919050819055815260200190815260200160002060008201518160000160006101000a81548173ffffffffffffffffffffffffffffffffffffffff021916908373ffffffffffffffffffffffffffffffffffffffff16021790555060208201518160010190816106ff9190612002565b5060408201518160020155606082015181600301556080820151816004015560a08201518160050160006101000a81548173ffffffffffffffffffffffffffffffffffffffff021916908373ffffffffffffffffffffffffffffffffffffffff1602179055509050507fdaaadf9aea4663e580644b099826369d83b54841ac6f1d4aaef3735e781e90fa33826006548660405161079f94939291906120d4565b60405180910390a1505050505050565b6107b7611458565b6107c160006114df565b565b6107cb6115a3565b600083905060006005600085815260200190815260200160002090506000831180156107fb575080600301548311155b61083a576040517f08c379a00000000000000000000000000000000000000000000000000000000081526004016108319061216c565b60405180910390fd5b8173ffffffffffffffffffffffffffffffffffffffff1663109a7200348360000160009054906101000a900473ffffffffffffffffffffffffffffffffffffffff163385600201548887600401546040518763ffffffff1660e01b81526004016108a895949392919061218c565b6000604051808303818588803b1580156108c157600080fd5b505af11580156108d5573d6000803e3d6000fd5b5050505050828160030160008282546108ee91906121df565b92505081905550600081600301540361098e5760056000858152602001908152602001600020600080820160006101000a81549073ffffffffffffffffffffffffffffffffffffffff021916905560018201600061094c91906115fa565b6002820160009055600382016000905560048201600090556005820160006101000a81549073ffffffffffffffffffffffffffffffffffffffff021916905550505b7fd16e75e9633bbee05cd8b0c1b0e89447ff81dffb066c914f4b1486d86957ca57338373ffffffffffffffffffffffffffffffffffffffff16638043c9c06040518163ffffffff1660e01b8152600401600060405180830381865afa1580156109fb573d6000803e3d6000fd5b505050506040513d6000823e3d601f19601f82011682018060405250810190610a249190611cf4565b8686604051610a3694939291906120d4565b60405180910390a15050610a486115e9565b505050565b60008060009054906101000a900473ffffffffffffffffffffffffffffffffffffffff16905090565b8073ffffffffffffffffffffffffffffffffffffffff16636dd7d8ea336040518263ffffffff1660e01b8152600401610aaf91906117c8565b600060405180830381600087803b158015610ac957600080fd5b505af1158015610add573d6000803e3d6000fd5b5050505050565b60036020528060005260406000206000915090508060000160009054906101000a900473ffffffffffffffffffffffffffffffffffffffff1690806001018054610b2d90611e25565b80601f0160208091040260200160405190810160405280929190818152602001828054610b5990611e25565b8015610ba65780601f10610b7b57610100808354040283529160200191610ba6565b820191906000526020600020905b815481529060010190602001808311610b8957829003601f168201915b5050505050908060020154908060030154908060040154908060050160009054906101000a900473ffffffffffffffffffffffffffffffffffffffff16905086565b60056020528060005260406000206000915090508060000160009054906101000a900473ffffffffffffffffffffffffffffffffffffffff1690806001018054610c3190611e25565b80601f0160208091040260200160405190810160405280929190818152602001828054610c5d90611e25565b8015610caa5780601f10610c7f57610100808354040283529160200191610caa565b820191906000526020600020905b815481529060010190602001808311610c8d57829003601f168201915b5050505050908060020154908060030154908060040154908060050160009054906101000a900473ffffffffffffffffffffffffffffffffffffffff16905086565b8073ffffffffffffffffffffffffffffffffffffffff166364c28047336040518263ffffffff1660e01b8152600401610d2591906117c8565b600060405180830381600087803b158015610d3f57600080fd5b505af1158015610d53573d6000803e3d6000fd5b5050505050565b610d62611458565b6001600260008373ffffffffffffffffffffffffffffffffffffffff1673ffffffffffffffffffffffffffffffffffffffff16815260200190815260200160002060006101000a81548160ff02191690831515021790555050565b600260003373ffffffffffffffffffffffffffffffffffffffff1673ffffffffffffffffffffffffffffffffffffffff16815260200190815260200160002060009054906101000a900460ff16610e49576040517f08c379a0000000000000000000000000000000000000000000000000000000008152600401610e409061225f565b60405180910390fd5b600082905060008173ffffffffffffffffffffffffffffffffffffffff166378fb29d7846040518263ffffffff1660e01b8152600401610e899190611984565b602060405180830381865afa158015610ea6573d6000803e3d6000fd5b505050506040513d601f19601f82011682018060405250810190610eca9190611a4a565b905060008273ffffffffffffffffffffffffffffffffffffffff16638043c9c06040518163ffffffff1660e01b8152600401600060405180830381865afa158015610f19573d6000803e3d6000fd5b505050506040513d6000823e3d601f19601f82011682018060405250810190610f429190611cf4565b90506040518060c001604052803373ffffffffffffffffffffffffffffffffffffffff1681526020018281526020018581526020018381526020018473ffffffffffffffffffffffffffffffffffffffff1663f06fc961876040518263ffffffff1660e01b8152600401610fb69190611984565b602060405180830381865afa158015610fd3573d6000803e3d6000fd5b505050506040513d601f19601f82011682018060405250810190610ff79190611a4a565b81526020018673ffffffffffffffffffffffffffffffffffffffff168152506003600060046000815461102990611dae565b919050819055815260200190815260200160002060008201518160000160006101000a81548173ffffffffffffffffffffffffffffffffffffffff021916908373ffffffffffffffffffffffffffffffffffffffff16021790555060208201518160010190816110999190612002565b5060408201518160020155606082015181600301556080820151816004015560a08201518160050160006101000a81548173ffffffffffffffffffffffffffffffffffffffff021916908373ffffffffffffffffffffffffffffffffffffffff1602179055509050507f84a2415ef5c2c130e7d2ab01505a5f165dc42071c3c0ae358467b260c213f77c33826004548560405161113994939291906120d4565b60405180910390a15050505050565b60045481565b60065481565b61115c6115a3565b6000600360008481526020019081526020016000209050600082118015611187575080600301548211155b6111c6576040517f08c379a00000000000000000000000000000000000000000000000000000000081526004016111bd9061216c565b60405180910390fd5b60008490508073ffffffffffffffffffffffffffffffffffffffff1663d21375eb34338560020154876040518563ffffffff1660e01b815260040161120d939291906119d5565b6000604051808303818588803b15801561122657600080fd5b505af115801561123a573d6000803e3d6000fd5b50505050508282600301600082825461125391906121df565b9250508190555060008260030154036112f35760036000858152602001908152602001600020600080820160006101000a81549073ffffffffffffffffffffffffffffffffffffffff02191690556001820160006112b191906115fa565b6002820160009055600382016000905560048201600090556005820160006101000a81549073ffffffffffffffffffffffffffffffffffffffff021916905550505b7f85d140ab50ecd1eb11cfdccb0465bac984f9253b793bfa82331d51fe3b5c1731338273ffffffffffffffffffffffffffffffffffffffff16638043c9c06040518163ffffffff1660e01b8152600401600060405180830381865afa158015611360573d6000803e3d6000fd5b505050506040513d6000823e3d601f19601f820116820180604052508101906113899190611cf4565b868660405161139b94939291906120d4565b60405180910390a150506113ad6115e9565b505050565b6113ba611458565b600073ffffffffffffffffffffffffffffffffffffffff168173ffffffffffffffffffffffffffffffffffffffff160361142c5760006040517f1e4fbdf700000000000000000000000000000000000000000000000000000000815260040161142391906117c8565b60405180910390fd5b611435816114df565b50565b60026020528060005260406000206000915054906101000a900460ff1681565b6114606115f2565b73ffffffffffffffffffffffffffffffffffffffff1661147e610a4d565b73ffffffffffffffffffffffffffffffffffffffff16146114dd576114a16115f2565b6040517f118cdaa70000000000000000000000000000000000000000000000000000000081526004016114d491906117c8565b60405180910390fd5b565b60008060009054906101000a900473ffffffffffffffffffffffffffffffffffffffff169050816000806101000a81548173ffffffffffffffffffffffffffffffffffffffff021916908373ffffffffffffffffffffffffffffffffffffffff1602179055508173ffffffffffffffffffffffffffffffffffffffff168173ffffffffffffffffffffffffffffffffffffffff167f8be0079c531659141344cd1fd0a4f28419497f9722a3daafe3b4186f6b6457e060405160405180910390a35050565b6002600154036115df576040517f3ee5aeb500000000000000000000000000000000000000000000000000000000815260040160405180910390fd5b6002600181905550565b60018081905550565b600033905090565b50805461160690611e25565b6000825580601f106116185750611637565b601f016020900490600052602060002090810190611636919061163a565b5b50565b5b8082111561165357600081600090555060010161163b565b5090565b6000604051905090565b600080fd5b600080fd5b600073ffffffffffffffffffffffffffffffffffffffff82169050919050565b60006116968261166b565b9050919050565b6116a68161168b565b81146116b157600080fd5b50565b6000813590506116c38161169d565b92915050565b6000819050919050565b6116dc816116c9565b81146116e757600080fd5b50565b6000813590506116f9816116d3565b92915050565b60008060006060848603121561171857611717611661565b5b6000611726868287016116b4565b9350506020611737868287016116ea565b9250506040611748868287016116ea565b9150509250925092565b6000806000806080858703121561176c5761176b611661565b5b600061177a878288016116b4565b945050602061178b878288016116ea565b935050604061179c878288016116ea565b92505060606117ad878288016116ea565b91505092959194509250565b6117c28161168b565b82525050565b60006020820190506117dd60008301846117b9565b92915050565b6000602082840312156117f9576117f8611661565b5b6000611807848285016116b4565b91505092915050565b60006020828403121561182657611825611661565b5b6000611834848285016116ea565b91505092915050565b600081519050919050565b600082825260208201905092915050565b60005b8381101561187757808201518184015260208101905061185c565b60008484015250505050565b6000601f19601f8301169050919050565b600061189f8261183d565b6118a98185611848565b93506118b9818560208601611859565b6118c281611883565b840191505092915050565b6118d6816116c9565b82525050565b600060c0820190506118f160008301896117b9565b81810360208301526119038188611894565b905061191260408301876118cd565b61191f60608301866118cd565b61192c60808301856118cd565b61193960a08301846117b9565b979650505050505050565b6000806040838503121561195b5761195a611661565b5b6000611969858286016116b4565b925050602061197a858286016116ea565b9150509250929050565b600060208201905061199960008301846118cd565b92915050565b60008115159050919050565b6119b48161199f565b82525050565b60006020820190506119cf60008301846119ab565b92915050565b60006060820190506119ea60008301866117b9565b6119f760208301856118cd565b611a0460408301846118cd565b949350505050565b6000604082019050611a2160008301856117b9565b611a2e60208301846118cd565b9392505050565b600081519050611a44816116d3565b92915050565b600060208284031215611a6057611a5f611661565b5b6000611a6e84828501611a35565b91505092915050565b7f496e73756666696369656e74207469636b657473206f776e6564210000000000600082015250565b6000611aad601b83611848565b9150611ab882611a77565b602082019050919050565b60006020820190508181036000830152611adc81611aa0565b9050919050565b611aec8161199f565b8114611af757600080fd5b50565b600081519050611b0981611ae3565b92915050565b600060208284031215611b2557611b24611661565b5b6000611b3384828501611afa565b91505092915050565b7f506c6561736520617070726f766520746865204576656e7420636f6e7472616360008201527f7420746f207472616e7366657220796f757220746f6b656e7320666972737421602082015250565b6000611b98604083611848565b9150611ba382611b3c565b604082019050919050565b60006020820190508181036000830152611bc781611b8b565b9050919050565b600080fd5b600080fd5b7f4e487b7100000000000000000000000000000000000000000000000000000000600052604160045260246000fd5b611c1082611883565b810181811067ffffffffffffffff82111715611c2f57611c2e611bd8565b5b80604052505050565b6000611c42611657565b9050611c4e8282611c07565b919050565b600067ffffffffffffffff821115611c6e57611c6d611bd8565b5b611c7782611883565b9050602081019050919050565b6000611c97611c9284611c53565b611c38565b905082815260208101848484011115611cb357611cb2611bd3565b5b611cbe848285611859565b509392505050565b600082601f830112611cdb57611cda611bce565b5b8151611ceb848260208601611c84565b91505092915050565b600060208284031215611d0a57611d09611661565b5b600082015167ffffffffffffffff811115611d2857611d27611666565b5b611d3484828501611cc6565b91505092915050565b7f4e487b7100000000000000000000000000000000000000000000000000000000600052601160045260246000fd5b6000611d77826116c9565b9150611d82836116c9565b9250828202611d90816116c9565b91508282048414831517611da757611da6611d3d565b5b5092915050565b6000611db9826116c9565b91507fffffffffffffffffffffffffffffffffffffffffffffffffffffffffffffffff8203611deb57611dea611d3d565b5b600182019050919050565b7f4e487b7100000000000000000000000000000000000000000000000000000000600052602260045260246000fd5b60006002820490506001821680611e3d57607f821691505b602082108103611e5057611e4f611df6565b5b50919050565b60008190508160005260206000209050919050565b60006020601f8301049050919050565b600082821b905092915050565b600060088302611eb87fffffffffffffffffffffffffffffffffffffffffffffffffffffffffffffffff82611e7b565b611ec28683611e7b565b95508019841693508086168417925050509392505050565b6000819050919050565b6000611eff611efa611ef5846116c9565b611eda565b6116c9565b9050919050565b6000819050919050565b611f1983611ee4565b611f2d611f2582611f06565b848454611e88565b825550505050565b600090565b611f42611f35565b611f4d818484611f10565b505050565b5b81811015611f7157611f66600082611f3a565b600181019050611f53565b5050565b601f821115611fb657611f8781611e56565b611f9084611e6b565b81016020851015611f9f578190505b611fb3611fab85611e6b565b830182611f52565b50505b505050565b600082821c905092915050565b6000611fd960001984600802611fbb565b1980831691505092915050565b6000611ff28383611fc8565b9150826002028217905092915050565b61200b8261183d565b67ffffffffffffffff81111561202457612023611bd8565b5b61202e8254611e25565b612039828285611f75565b600060209050601f83116001811461206c576000841561205a578287015190505b6120648582611fe6565b8655506120cc565b601f19841661207a86611e56565b60005b828110156120a25784890151825560018201915060208501945060208101905061207d565b868310156120bf57848901516120bb601f891682611fc8565b8355505b6001600288020188555050505b505050505050565b60006080820190506120e960008301876117b9565b81810360208301526120fb8186611894565b905061210a60408301856118cd565b61211760608301846118cd565b95945050505050565b7f496e76616c6964207175616e7469747920726571756573746564000000000000600082015250565b6000612156601a83611848565b915061216182612120565b602082019050919050565b6000602082019050818103600083015261218581612149565b9050919050565b600060a0820190506121a160008301886117b9565b6121ae60208301876117b9565b6121bb60408301866118cd565b6121c860608301856118cd565b6121d560808301846118cd565b9695505050505050565b60006121ea826116c9565b91506121f5836116c9565b925082820390508181111561220d5761220c611d3d565b5b92915050565b7f4f7267616e69736572206973206e6f7420617070726f76656400000000000000600082015250565b6000612249601983611848565b915061225482612213565b602082019050919050565b600060208201905081810360008301526122788161223c565b905091905056fea2646970667358221220a2bc8d8eae33ad5dfb1089308a9a5b0e759637e8ba9f7b0db2eb42067a8a86f464736f6c634300081c0033",
  "linkReferences": {},
  "deployedLinkReferences": {}
}