{
  "_format": "hh-sol-artifact-1",
  "contractName": "Marketplace",
  "sourceName": "contracts/Marketplace.sol",
  "abi": [
    {
      "inputs": [],
      "stateMutability": "nonpayable",
      "type": "constructor"
    },
    {
      "inputs": [
        {
          "internalType": "address",
          "name": "owner",
          "type": "address"
        }
      ],
      "name": "OwnableInvalidOwner",
      "type": "error"
    },
    {
      "inputs": [
        {
          "internalType": "address",
          "name": "account",
          "type": "address"
        }
      ],
      "name": "OwnableUnauthorizedAccount",
      "type": "error"
    },
    {
      "inputs": [],
      "name": "ReentrancyGuardReentrantCall",
      "type": "error"
    },
    {
      "anonymous": false,
      "inputs": [
        {
          "indexed": false,
          "internalType": "address",
          "name": "organiser",
          "type": "address"
        },
        {
          "indexed": false,
          "internalType": "string",
          "name": "eventName",
          "type": "string"
        },
        {
          "indexed": false,
          "internalType": "uint256",
          "name": "listingId",
          "type": "uint256"
        },
        {
          "indexed": false,
          "internalType": "uint256",
          "name": "quantity",
          "type": "uint256"
        }
      ],
      "name": "OfficialTicketListed",
      "type": "event"
    },
    {
      "anonymous": false,
      "inputs": [
        {
          "indexed": false,
          "internalType": "address",
          "name": "buyer",
          "type": "address"
        },
        {
          "indexed": false,
          "internalType": "string",
          "name": "eventName",
          "type": "string"
        },
        {
          "indexed": false,
          "internalType": "uint256",
          "name": "listingId",
          "type": "uint256"
        },
        {
          "indexed": false,
          "internalType": "uint256",
          "name": "quantity",
          "type": "uint256"
        }
      ],
      "name": "OfficialTicketPurchased",
      "type": "event"
    },
    {
      "anonymous": false,
      "inputs": [
        {
          "indexed": true,
          "internalType": "address",
          "name": "previousOwner",
          "type": "address"
        },
        {
          "indexed": true,
          "internalType": "address",
          "name": "newOwner",
          "type": "address"
        }
      ],
      "name": "OwnershipTransferred",
      "type": "event"
    },
    {
      "anonymous": false,
      "inputs": [
        {
          "indexed": false,
          "internalType": "address",
          "name": "seller",
          "type": "address"
        },
        {
          "indexed": false,
          "internalType": "string",
          "name": "eventName",
          "type": "string"
        },
        {
          "indexed": false,
          "internalType": "uint256",
          "name": "listingId",
          "type": "uint256"
        },
        {
          "indexed": false,
          "internalType": "uint256",
          "name": "quantity",
          "type": "uint256"
        }
      ],
      "name": "ResaleTicketListed",
      "type": "event"
    },
    {
      "anonymous": false,
      "inputs": [
        {
          "indexed": false,
          "internalType": "address",
          "name": "buyer",
          "type": "address"
        },
        {
          "indexed": false,
          "internalType": "string",
          "name": "eventName",
          "type": "string"
        },
        {
          "indexed": false,
          "internalType": "uint256",
          "name": "listingId",
          "type": "uint256"
        },
        {
          "indexed": false,
          "internalType": "uint256",
          "name": "quantity",
          "type": "uint256"
        }
      ],
      "name": "ResaleTicketPurchased",
      "type": "event"
    },
    {
      "inputs": [
        {
          "internalType": "address",
          "name": "",
          "type": "address"
        }
      ],
      "name": "allowedOrganisers",
      "outputs": [
        {
          "internalType": "bool",
          "name": "",
          "type": "bool"
        }
      ],
      "stateMutability": "view",
      "type": "function"
    },
    {
      "inputs": [
        {
          "internalType": "address",
          "name": "Organiser",
          "type": "address"
        }
      ],
      "name": "approveOrganiser",
      "outputs": [],
      "stateMutability": "nonpayable",
      "type": "function"
    },
    {
      "inputs": [
        {
          "internalType": "address",
          "name": "eventContract",
          "type": "address"
        },
        {
          "internalType": "uint256",
          "name": "listingId",
          "type": "uint256"
        },
        {
          "internalType": "uint256",
          "name": "quantity",
          "type": "uint256"
        }
      ],
      "name": "buyOfficialTicket",
      "outputs": [],
      "stateMutability": "payable",
      "type": "function"
    },
    {
      "inputs": [
        {
          "internalType": "address",
          "name": "eventContract",
          "type": "address"
        },
        {
          "internalType": "uint256",
          "name": "listingId",
          "type": "uint256"
        },
        {
          "internalType": "uint256",
          "name": "quantity",
          "type": "uint256"
        }
      ],
      "name": "buyResaleTicket",
      "outputs": [],
      "stateMutability": "payable",
      "type": "function"
    },
    {
      "inputs": [
        {
          "internalType": "address",
          "name": "eventContract",
          "type": "address"
        }
      ],
      "name": "claimRefund",
      "outputs": [],
      "stateMutability": "nonpayable",
      "type": "function"
    },
    {
      "inputs": [
        {
          "internalType": "address",
          "name": "eventContract",
          "type": "address"
        },
        {
          "internalType": "uint256",
          "name": "ticketId",
          "type": "uint256"
        }
      ],
      "name": "createOfficialListing",
      "outputs": [],
      "stateMutability": "nonpayable",
      "type": "function"
    },
    {
      "inputs": [
        {
          "internalType": "address",
          "name": "eventContract",
          "type": "address"
        },
        {
          "internalType": "uint256",
          "name": "ticketPrice",
          "type": "uint256"
        },
        {
          "internalType": "uint256",
          "name": "ticketId",
          "type": "uint256"
        },
        {
          "internalType": "uint256",
          "name": "quantity",
          "type": "uint256"
        }
      ],
      "name": "createResaleListing",
      "outputs": [],
      "stateMutability": "nonpayable",
      "type": "function"
    },
    {
      "inputs": [],
      "name": "officialListingCount",
      "outputs": [
        {
          "internalType": "uint256",
          "name": "",
          "type": "uint256"
        }
      ],
      "stateMutability": "view",
      "type": "function"
    },
    {
      "inputs": [
        {
          "internalType": "uint256",
          "name": "",
          "type": "uint256"
        }
      ],
      "name": "officialListings",
      "outputs": [
        {
          "internalType": "address",
          "name": "seller",
          "type": "address"
        },
        {
          "internalType": "uint256",
          "name": "ticketId",
          "type": "uint256"
        },
        {
          "internalType": "uint256",
          "name": "quantity",
          "type": "uint256"
        },
        {
          "internalType": "uint256",
          "name": "pricePerTicket",
          "type": "uint256"
        }
      ],
      "stateMutability": "view",
      "type": "function"
    },
    {
      "inputs": [],
      "name": "owner",
      "outputs": [
        {
          "internalType": "address",
          "name": "",
          "type": "address"
        }
      ],
      "stateMutability": "view",
      "type": "function"
    },
    {
      "inputs": [],
      "name": "renounceOwnership",
      "outputs": [],
      "stateMutability": "nonpayable",
      "type": "function"
    },
    {
      "inputs": [],
      "name": "resaleListingCount",
      "outputs": [
        {
          "internalType": "uint256",
          "name": "",
          "type": "uint256"
        }
      ],
      "stateMutability": "view",
      "type": "function"
    },
    {
      "inputs": [
        {
          "internalType": "uint256",
          "name": "",
          "type": "uint256"
        }
      ],
      "name": "resaleListings",
      "outputs": [
        {
          "internalType": "address",
          "name": "seller",
          "type": "address"
        },
        {
          "internalType": "uint256",
          "name": "ticketId",
          "type": "uint256"
        },
        {
          "internalType": "uint256",
          "name": "quantity",
          "type": "uint256"
        },
        {
          "internalType": "uint256",
          "name": "pricePerTicket",
          "type": "uint256"
        }
      ],
      "stateMutability": "view",
      "type": "function"
    },
    {
      "inputs": [
        {
          "internalType": "address",
          "name": "newOwner",
          "type": "address"
        }
      ],
      "name": "transferOwnership",
      "outputs": [],
      "stateMutability": "nonpayable",
      "type": "function"
    },
    {
      "inputs": [
        {
          "internalType": "address",
          "name": "eventContract",
          "type": "address"
        },
        {
          "internalType": "uint256",
          "name": "ticketId",
          "type": "uint256"
        },
        {
          "internalType": "uint256",
          "name": "quantity",
          "type": "uint256"
        }
      ],
      "name": "useTicket",
      "outputs": [],
      "stateMutability": "nonpayable",
      "type": "function"
    },
    {
      "inputs": [
        {
          "internalType": "address",
          "name": "eventContract",
          "type": "address"
        }
      ],
      "name": "voteForRefund",
      "outputs": [],
      "stateMutability": "nonpayable",
      "type": "function"
    }
  ],
  "bytecode": "0x608060405234801561001057600080fd5b5033600073ffffffffffffffffffffffffffffffffffffffff168173ffffffffffffffffffffffffffffffffffffffff16036100845760006040517f1e4fbdf700000000000000000000000000000000000000000000000000000000815260040161007b91906101a5565b60405180910390fd5b610093816100a060201b60201c565b50600180819055506101c0565b60008060009054906101000a900473ffffffffffffffffffffffffffffffffffffffff169050816000806101000a81548173ffffffffffffffffffffffffffffffffffffffff021916908373ffffffffffffffffffffffffffffffffffffffff1602179055508173ffffffffffffffffffffffffffffffffffffffff168173ffffffffffffffffffffffffffffffffffffffff167f8be0079c531659141344cd1fd0a4f28419497f9722a3daafe3b4186f6b6457e060405160405180910390a35050565b600073ffffffffffffffffffffffffffffffffffffffff82169050919050565b600061018f82610164565b9050919050565b61019f81610184565b82525050565b60006020820190506101ba6000830184610196565b92915050565b611c1e806101cf6000396000f3fe6080604052600436106100f35760003560e01c8063bffa55d51161008a578063ee11e7d511610059578063ee11e7d5146102f7578063f16581bb14610322578063f2fde38b1461033e578063f727361b14610367576100f3565b8063bffa55d514610251578063db370e6b1461027a578063e278c3ff146102a3578063ebe3e8d5146102cc576100f3565b80638da5cb5b116100c65780638da5cb5b1461017d57806390200536146101a857806395023f35146101d1578063b41b4bd414610211576100f3565b8063222e5760146100f857806348842b8814610121578063715018a61461014a578063827f916614610161575b600080fd5b34801561010457600080fd5b5061011f600480360381019061011a91906113ab565b6103a4565b005b34801561012d57600080fd5b50610148600480360381019061014391906113fe565b610418565b005b34801561015657600080fd5b5061015f610713565b005b61017b600480360381019061017691906113ab565b610727565b005b34801561018957600080fd5b5061019261097a565b60405161019f9190611474565b60405180910390f35b3480156101b457600080fd5b506101cf60048036038101906101ca919061148f565b6109a3565b005b3480156101dd57600080fd5b506101f860048036038101906101f391906114bc565b610a11565b60405161020894939291906114f8565b60405180910390f35b34801561021d57600080fd5b50610238600480360381019061023391906114bc565b610a61565b60405161024894939291906114f8565b60405180910390f35b34801561025d57600080fd5b506102786004803603810190610273919061148f565b610ab1565b005b34801561028657600080fd5b506102a1600480360381019061029c919061148f565b610b1f565b005b3480156102af57600080fd5b506102ca60048036038101906102c5919061153d565b610b82565b005b3480156102d857600080fd5b506102e1610e88565b6040516102ee919061157d565b60405180910390f35b34801561030357600080fd5b5061030c610e8e565b604051610319919061157d565b60405180910390f35b61033c600480360381019061033791906113ab565b610e94565b005b34801561034a57600080fd5b506103656004803603810190610360919061148f565b6110bb565b005b34801561037357600080fd5b5061038e6004803603810190610389919061148f565b611141565b60405161039b91906115b3565b60405180910390f35b8273ffffffffffffffffffffffffffffffffffffffff1663587974d03384846040518463ffffffff1660e01b81526004016103e1939291906115ce565b600060405180830381600087803b1580156103fb57600080fd5b505af115801561040f573d6000803e3d6000fd5b50505050505050565b6000849050818173ffffffffffffffffffffffffffffffffffffffff16638758e33933866040518363ffffffff1660e01b8152600401610459929190611605565b602060405180830381865afa158015610476573d6000803e3d6000fd5b505050506040513d601f19601f8201168201806040525081019061049a9190611643565b10156104db576040517f08c379a00000000000000000000000000000000000000000000000000000000081526004016104d2906116cd565b60405180910390fd5b8073ffffffffffffffffffffffffffffffffffffffff1663ec29e26c336040518263ffffffff1660e01b81526004016105149190611474565b602060405180830381865afa158015610531573d6000803e3d6000fd5b505050506040513d601f19601f820116820180604052508101906105559190611719565b610594576040517f08c379a000000000000000000000000000000000000000000000000000000000815260040161058b906117b8565b60405180910390fd5b60405180608001604052803373ffffffffffffffffffffffffffffffffffffffff16815260200184815260200183815260200185815250600560006006600081546105de90611807565b919050819055815260200190815260200160002060008201518160000160006101000a81548173ffffffffffffffffffffffffffffffffffffffff021916908373ffffffffffffffffffffffffffffffffffffffff1602179055506020820151816001015560408201518160020155606082015181600301559050507fdaaadf9aea4663e580644b099826369d83b54841ac6f1d4aaef3735e781e90fa338273ffffffffffffffffffffffffffffffffffffffff16638043c9c06040518163ffffffff1660e01b8152600401600060405180830381865afa1580156106c7573d6000803e3d6000fd5b505050506040513d6000823e3d601f19601f820116820180604052508101906106f091906119b0565b600654856040516107049493929190611a3d565b60405180910390a15050505050565b61071b611161565b61072560006111e8565b565b61072f6112ac565b6000839050600060056000858152602001908152602001600020905060008311801561075f575080600201548311155b61079e576040517f08c379a000000000000000000000000000000000000000000000000000000000815260040161079590611ad5565b60405180910390fd5b8173ffffffffffffffffffffffffffffffffffffffff1663109a7200348360000160009054906101000a900473ffffffffffffffffffffffffffffffffffffffff163385600101548887600301546040518763ffffffff1660e01b815260040161080c959493929190611af5565b6000604051808303818588803b15801561082557600080fd5b505af1158015610839573d6000803e3d6000fd5b5050505050828160020160008282546108529190611b48565b9250508190555060008160020154036108bb5760056000858152602001908152602001600020600080820160006101000a81549073ffffffffffffffffffffffffffffffffffffffff021916905560018201600090556002820160009055600382016000905550505b7fd16e75e9633bbee05cd8b0c1b0e89447ff81dffb066c914f4b1486d86957ca57338373ffffffffffffffffffffffffffffffffffffffff16638043c9c06040518163ffffffff1660e01b8152600401600060405180830381865afa158015610928573d6000803e3d6000fd5b505050506040513d6000823e3d601f19601f8201168201806040525081019061095191906119b0565b86866040516109639493929190611a3d565b60405180910390a150506109756112f2565b505050565b60008060009054906101000a900473ffffffffffffffffffffffffffffffffffffffff16905090565b8073ffffffffffffffffffffffffffffffffffffffff16636dd7d8ea336040518263ffffffff1660e01b81526004016109dc9190611474565b600060405180830381600087803b1580156109f657600080fd5b505af1158015610a0a573d6000803e3d6000fd5b5050505050565b60036020528060005260406000206000915090508060000160009054906101000a900473ffffffffffffffffffffffffffffffffffffffff16908060010154908060020154908060030154905084565b60056020528060005260406000206000915090508060000160009054906101000a900473ffffffffffffffffffffffffffffffffffffffff16908060010154908060020154908060030154905084565b8073ffffffffffffffffffffffffffffffffffffffff166364c28047336040518263ffffffff1660e01b8152600401610aea9190611474565b600060405180830381600087803b158015610b0457600080fd5b505af1158015610b18573d6000803e3d6000fd5b5050505050565b610b27611161565b6001600260008373ffffffffffffffffffffffffffffffffffffffff1673ffffffffffffffffffffffffffffffffffffffff16815260200190815260200160002060006101000a81548160ff02191690831515021790555050565b600260003373ffffffffffffffffffffffffffffffffffffffff1673ffffffffffffffffffffffffffffffffffffffff16815260200190815260200160002060009054906101000a900460ff16610c0e576040517f08c379a0000000000000000000000000000000000000000000000000000000008152600401610c0590611bc8565b60405180910390fd5b600082905060008173ffffffffffffffffffffffffffffffffffffffff166378fb29d7846040518263ffffffff1660e01b8152600401610c4e919061157d565b602060405180830381865afa158015610c6b573d6000803e3d6000fd5b505050506040513d601f19601f82011682018060405250810190610c8f9190611643565b905060405180608001604052803373ffffffffffffffffffffffffffffffffffffffff1681526020018481526020018281526020018373ffffffffffffffffffffffffffffffffffffffff1663f06fc961866040518263ffffffff1660e01b8152600401610cfd919061157d565b602060405180830381865afa158015610d1a573d6000803e3d6000fd5b505050506040513d601f19601f82011682018060405250810190610d3e9190611643565b81525060036000600460008154610d5490611807565b919050819055815260200190815260200160002060008201518160000160006101000a81548173ffffffffffffffffffffffffffffffffffffffff021916908373ffffffffffffffffffffffffffffffffffffffff1602179055506020820151816001015560408201518160020155606082015181600301559050507f84a2415ef5c2c130e7d2ab01505a5f165dc42071c3c0ae358467b260c213f77c338373ffffffffffffffffffffffffffffffffffffffff16638043c9c06040518163ffffffff1660e01b8152600401600060405180830381865afa158015610e3d573d6000803e3d6000fd5b505050506040513d6000823e3d601f19601f82011682018060405250810190610e6691906119b0565b60045484604051610e7a9493929190611a3d565b60405180910390a150505050565b60045481565b60065481565b610e9c6112ac565b6000600360008481526020019081526020016000209050600082118015610ec7575080600201548211155b610f06576040517f08c379a0000000000000000000000000000000000000000000000000000000008152600401610efd90611ad5565b60405180910390fd5b60008490508073ffffffffffffffffffffffffffffffffffffffff1663d21375eb34338560010154876040518563ffffffff1660e01b8152600401610f4d939291906115ce565b6000604051808303818588803b158015610f6657600080fd5b505af1158015610f7a573d6000803e3d6000fd5b505050505082826002016000828254610f939190611b48565b925050819055506000826002015403610ffc5760036000858152602001908152602001600020600080820160006101000a81549073ffffffffffffffffffffffffffffffffffffffff021916905560018201600090556002820160009055600382016000905550505b7f85d140ab50ecd1eb11cfdccb0465bac984f9253b793bfa82331d51fe3b5c1731338273ffffffffffffffffffffffffffffffffffffffff16638043c9c06040518163ffffffff1660e01b8152600401600060405180830381865afa158015611069573d6000803e3d6000fd5b505050506040513d6000823e3d601f19601f8201168201806040525081019061109291906119b0565b86866040516110a49493929190611a3d565b60405180910390a150506110b66112f2565b505050565b6110c3611161565b600073ffffffffffffffffffffffffffffffffffffffff168173ffffffffffffffffffffffffffffffffffffffff16036111355760006040517f1e4fbdf700000000000000000000000000000000000000000000000000000000815260040161112c9190611474565b60405180910390fd5b61113e816111e8565b50565b60026020528060005260406000206000915054906101000a900460ff1681565b6111696112fb565b73ffffffffffffffffffffffffffffffffffffffff1661118761097a565b73ffffffffffffffffffffffffffffffffffffffff16146111e6576111aa6112fb565b6040517f118cdaa70000000000000000000000000000000000000000000000000000000081526004016111dd9190611474565b60405180910390fd5b565b60008060009054906101000a900473ffffffffffffffffffffffffffffffffffffffff169050816000806101000a81548173ffffffffffffffffffffffffffffffffffffffff021916908373ffffffffffffffffffffffffffffffffffffffff1602179055508173ffffffffffffffffffffffffffffffffffffffff168173ffffffffffffffffffffffffffffffffffffffff167f8be0079c531659141344cd1fd0a4f28419497f9722a3daafe3b4186f6b6457e060405160405180910390a35050565b6002600154036112e8576040517f3ee5aeb500000000000000000000000000000000000000000000000000000000815260040160405180910390fd5b6002600181905550565b60018081905550565b600033905090565b6000604051905090565b600080fd5b600080fd5b600073ffffffffffffffffffffffffffffffffffffffff82169050919050565b600061134282611317565b9050919050565b61135281611337565b811461135d57600080fd5b50565b60008135905061136f81611349565b92915050565b6000819050919050565b61138881611375565b811461139357600080fd5b50565b6000813590506113a58161137f565b92915050565b6000806000606084860312156113c4576113c361130d565b5b60006113d286828701611360565b93505060206113e386828701611396565b92505060406113f486828701611396565b9150509250925092565b600080600080608085870312156114185761141761130d565b5b600061142687828801611360565b945050602061143787828801611396565b935050604061144887828801611396565b925050606061145987828801611396565b91505092959194509250565b61146e81611337565b82525050565b60006020820190506114896000830184611465565b92915050565b6000602082840312156114a5576114a461130d565b5b60006114b384828501611360565b91505092915050565b6000602082840312156114d2576114d161130d565b5b60006114e084828501611396565b91505092915050565b6114f281611375565b82525050565b600060808201905061150d6000830187611465565b61151a60208301866114e9565b61152760408301856114e9565b61153460608301846114e9565b95945050505050565b600080604083850312156115545761155361130d565b5b600061156285828601611360565b925050602061157385828601611396565b9150509250929050565b600060208201905061159260008301846114e9565b92915050565b60008115159050919050565b6115ad81611598565b82525050565b60006020820190506115c860008301846115a4565b92915050565b60006060820190506115e36000830186611465565b6115f060208301856114e9565b6115fd60408301846114e9565b949350505050565b600060408201905061161a6000830185611465565b61162760208301846114e9565b9392505050565b60008151905061163d8161137f565b92915050565b6000602082840312156116595761165861130d565b5b60006116678482850161162e565b91505092915050565b600082825260208201905092915050565b7f496e73756666696369656e74207469636b657473206f776e6564210000000000600082015250565b60006116b7601b83611670565b91506116c282611681565b602082019050919050565b600060208201905081810360008301526116e6816116aa565b9050919050565b6116f681611598565b811461170157600080fd5b50565b600081519050611713816116ed565b92915050565b60006020828403121561172f5761172e61130d565b5b600061173d84828501611704565b91505092915050565b7f506c6561736520617070726f766520746865204576656e7420636f6e7472616360008201527f7420746f207472616e7366657220796f757220746f6b656e7320666972737421602082015250565b60006117a2604083611670565b91506117ad82611746565b604082019050919050565b600060208201905081810360008301526117d181611795565b9050919050565b7f4e487b7100000000000000000000000000000000000000000000000000000000600052601160045260246000fd5b600061181282611375565b91507fffffffffffffffffffffffffffffffffffffffffffffffffffffffffffffffff8203611844576118436117d8565b5b600182019050919050565b600080fd5b600080fd5b6000601f19601f8301169050919050565b7f4e487b7100000000000000000000000000000000000000000000000000000000600052604160045260246000fd5b6118a282611859565b810181811067ffffffffffffffff821117156118c1576118c061186a565b5b80604052505050565b60006118d4611303565b90506118e08282611899565b919050565b600067ffffffffffffffff821115611900576118ff61186a565b5b61190982611859565b9050602081019050919050565b60005b83811015611934578082015181840152602081019050611919565b60008484015250505050565b600061195361194e846118e5565b6118ca565b90508281526020810184848401111561196f5761196e611854565b5b61197a848285611916565b509392505050565b600082601f8301126119975761199661184f565b5b81516119a7848260208601611940565b91505092915050565b6000602082840312156119c6576119c561130d565b5b600082015167ffffffffffffffff8111156119e4576119e3611312565b5b6119f084828501611982565b91505092915050565b600081519050919050565b6000611a0f826119f9565b611a198185611670565b9350611a29818560208601611916565b611a3281611859565b840191505092915050565b6000608082019050611a526000830187611465565b8181036020830152611a648186611a04565b9050611a7360408301856114e9565b611a8060608301846114e9565b95945050505050565b7f496e76616c6964207175616e7469747920726571756573746564000000000000600082015250565b6000611abf601a83611670565b9150611aca82611a89565b602082019050919050565b60006020820190508181036000830152611aee81611ab2565b9050919050565b600060a082019050611b0a6000830188611465565b611b176020830187611465565b611b2460408301866114e9565b611b3160608301856114e9565b611b3e60808301846114e9565b9695505050505050565b6000611b5382611375565b9150611b5e83611375565b9250828203905081811115611b7657611b756117d8565b5b92915050565b7f4f7267616e69736572206973206e6f7420617070726f76656400000000000000600082015250565b6000611bb2601983611670565b9150611bbd82611b7c565b602082019050919050565b60006020820190508181036000830152611be181611ba5565b905091905056fea2646970667358221220b5c5d2c74f2e801680c896a6d3b5559772fdb19aa065abb179ce726403cc941164736f6c634300081c0033",
  "linkReferences": {},
  "deployedLinkReferences": {}
}