{
  "_format": "hh-sol-artifact-1",
  "contractName": "Ticket",
  "sourceName": "contracts/Ticket.sol",
  "abi": [
    {
      "inputs": [
        {
          "internalType": "string",
          "name": "uri_",
          "type": "string"
        },
        {
          "internalType": "uint256",
          "name": "_numberOfTickets",
          "type": "uint256"
        }
      ],
      "stateMutability": "nonpayable",
      "type": "constructor"
    },
    {
      "inputs": [
        {
          "internalType": "address",
          "name": "sender",
          "type": "address"
        },
        {
          "internalType": "uint256",
          "name": "balance",
          "type": "uint256"
        },
        {
          "internalType": "uint256",
          "name": "needed",
          "type": "uint256"
        },
        {
          "internalType": "uint256",
          "name": "tokenId",
          "type": "uint256"
        }
      ],
      "name": "ERC1155InsufficientBalance",
      "type": "error"
    },
    {
      "inputs": [
        {
          "internalType": "address",
          "name": "approver",
          "type": "address"
        }
      ],
      "name": "ERC1155InvalidApprover",
      "type": "error"
    },
    {
      "inputs": [
        {
          "internalType": "uint256",
          "name": "idsLength",
          "type": "uint256"
        },
        {
          "internalType": "uint256",
          "name": "valuesLength",
          "type": "uint256"
        }
      ],
      "name": "ERC1155InvalidArrayLength",
      "type": "error"
    },
    {
      "inputs": [
        {
          "internalType": "address",
          "name": "operator",
          "type": "address"
        }
      ],
      "name": "ERC1155InvalidOperator",
      "type": "error"
    },
    {
      "inputs": [
        {
          "internalType": "address",
          "name": "receiver",
          "type": "address"
        }
      ],
      "name": "ERC1155InvalidReceiver",
      "type": "error"
    },
    {
      "inputs": [
        {
          "internalType": "address",
          "name": "sender",
          "type": "address"
        }
      ],
      "name": "ERC1155InvalidSender",
      "type": "error"
    },
    {
      "inputs": [
        {
          "internalType": "address",
          "name": "operator",
          "type": "address"
        },
        {
          "internalType": "address",
          "name": "owner",
          "type": "address"
        }
      ],
      "name": "ERC1155MissingApprovalForAll",
      "type": "error"
    },
    {
      "inputs": [
        {
          "internalType": "address",
          "name": "owner",
          "type": "address"
        }
      ],
      "name": "OwnableInvalidOwner",
      "type": "error"
    },
    {
      "inputs": [
        {
          "internalType": "address",
          "name": "account",
          "type": "address"
        }
      ],
      "name": "OwnableUnauthorizedAccount",
      "type": "error"
    },
    {
      "anonymous": false,
      "inputs": [
        {
          "indexed": true,
          "internalType": "address",
          "name": "account",
          "type": "address"
        },
        {
          "indexed": true,
          "internalType": "address",
          "name": "operator",
          "type": "address"
        },
        {
          "indexed": false,
          "internalType": "bool",
          "name": "approved",
          "type": "bool"
        }
      ],
      "name": "ApprovalForAll",
      "type": "event"
    },
    {
      "anonymous": false,
      "inputs": [
        {
          "indexed": true,
          "internalType": "address",
          "name": "previousOwner",
          "type": "address"
        },
        {
          "indexed": true,
          "internalType": "address",
          "name": "newOwner",
          "type": "address"
        }
      ],
      "name": "OwnershipTransferred",
      "type": "event"
    },
    {
      "anonymous": false,
      "inputs": [
        {
          "indexed": true,
          "internalType": "address",
          "name": "operator",
          "type": "address"
        },
        {
          "indexed": true,
          "internalType": "address",
          "name": "from",
          "type": "address"
        },
        {
          "indexed": true,
          "internalType": "address",
          "name": "to",
          "type": "address"
        },
        {
          "indexed": false,
          "internalType": "uint256[]",
          "name": "ids",
          "type": "uint256[]"
        },
        {
          "indexed": false,
          "internalType": "uint256[]",
          "name": "values",
          "type": "uint256[]"
        }
      ],
      "name": "TransferBatch",
      "type": "event"
    },
    {
      "anonymous": false,
      "inputs": [
        {
          "indexed": true,
          "internalType": "address",
          "name": "operator",
          "type": "address"
        },
        {
          "indexed": true,
          "internalType": "address",
          "name": "from",
          "type": "address"
        },
        {
          "indexed": true,
          "internalType": "address",
          "name": "to",
          "type": "address"
        },
        {
          "indexed": false,
          "internalType": "uint256",
          "name": "id",
          "type": "uint256"
        },
        {
          "indexed": false,
          "internalType": "uint256",
          "name": "value",
          "type": "uint256"
        }
      ],
      "name": "TransferSingle",
      "type": "event"
    },
    {
      "anonymous": false,
      "inputs": [
        {
          "indexed": false,
          "internalType": "string",
          "name": "value",
          "type": "string"
        },
        {
          "indexed": true,
          "internalType": "uint256",
          "name": "id",
          "type": "uint256"
        }
      ],
      "name": "URI",
      "type": "event"
    },
    {
      "inputs": [],
      "name": "NORMAL_TICKET",
      "outputs": [
        {
          "internalType": "uint256",
          "name": "",
          "type": "uint256"
        }
      ],
      "stateMutability": "view",
      "type": "function"
    },
    {
      "inputs": [
        {
          "internalType": "address",
          "name": "account",
          "type": "address"
        },
        {
          "internalType": "uint256",
          "name": "id",
          "type": "uint256"
        }
      ],
      "name": "balanceOf",
      "outputs": [
        {
          "internalType": "uint256",
          "name": "",
          "type": "uint256"
        }
      ],
      "stateMutability": "view",
      "type": "function"
    },
    {
      "inputs": [
        {
          "internalType": "address[]",
          "name": "accounts",
          "type": "address[]"
        },
        {
          "internalType": "uint256[]",
          "name": "ids",
          "type": "uint256[]"
        }
      ],
      "name": "balanceOfBatch",
      "outputs": [
        {
          "internalType": "uint256[]",
          "name": "",
          "type": "uint256[]"
        }
      ],
      "stateMutability": "view",
      "type": "function"
    },
    {
      "inputs": [
        {
          "internalType": "address",
          "name": "account",
          "type": "address"
        },
        {
          "internalType": "uint256",
          "name": "id",
          "type": "uint256"
        },
        {
          "internalType": "uint256",
          "name": "amount",
          "type": "uint256"
        }
      ],
      "name": "burn",
      "outputs": [],
      "stateMutability": "nonpayable",
      "type": "function"
    },
    {
      "inputs": [],
      "name": "eventContract",
      "outputs": [
        {
          "internalType": "address",
          "name": "",
          "type": "address"
        }
      ],
      "stateMutability": "view",
      "type": "function"
    },
    {
      "inputs": [
        {
          "internalType": "uint256",
          "name": "ticketId",
          "type": "uint256"
        }
      ],
      "name": "getTicketPrice",
      "outputs": [
        {
          "internalType": "uint256",
          "name": "",
          "type": "uint256"
        }
      ],
      "stateMutability": "view",
      "type": "function"
    },
    {
      "inputs": [
        {
          "internalType": "address",
          "name": "account",
          "type": "address"
        },
        {
          "internalType": "address",
          "name": "operator",
          "type": "address"
        }
      ],
      "name": "isApprovedForAll",
      "outputs": [
        {
          "internalType": "bool",
          "name": "",
          "type": "bool"
        }
      ],
      "stateMutability": "view",
      "type": "function"
    },
    {
      "inputs": [],
      "name": "owner",
      "outputs": [
        {
          "internalType": "address",
          "name": "",
          "type": "address"
        }
      ],
      "stateMutability": "view",
      "type": "function"
    },
    {
      "inputs": [],
      "name": "renounceOwnership",
      "outputs": [],
      "stateMutability": "nonpayable",
      "type": "function"
    },
    {
      "inputs": [
        {
          "internalType": "address",
          "name": "from",
          "type": "address"
        },
        {
          "internalType": "address",
          "name": "to",
          "type": "address"
        },
        {
          "internalType": "uint256[]",
          "name": "ids",
          "type": "uint256[]"
        },
        {
          "internalType": "uint256[]",
          "name": "values",
          "type": "uint256[]"
        },
        {
          "internalType": "bytes",
          "name": "data",
          "type": "bytes"
        }
      ],
      "name": "safeBatchTransferFrom",
      "outputs": [],
      "stateMutability": "nonpayable",
      "type": "function"
    },
    {
      "inputs": [
        {
          "internalType": "address",
          "name": "from",
          "type": "address"
        },
        {
          "internalType": "address",
          "name": "to",
          "type": "address"
        },
        {
          "internalType": "uint256",
          "name": "id",
          "type": "uint256"
        },
        {
          "internalType": "uint256",
          "name": "amount",
          "type": "uint256"
        },
        {
          "internalType": "bytes",
          "name": "_data",
          "type": "bytes"
        }
      ],
      "name": "safeTransferFrom",
      "outputs": [],
      "stateMutability": "nonpayable",
      "type": "function"
    },
    {
      "inputs": [
        {
          "internalType": "address",
          "name": "operator",
          "type": "address"
        },
        {
          "internalType": "bool",
          "name": "approved",
          "type": "bool"
        }
      ],
      "name": "setApprovalForAll",
      "outputs": [],
      "stateMutability": "nonpayable",
      "type": "function"
    },
    {
      "inputs": [
        {
          "internalType": "address",
          "name": "_eventContract",
          "type": "address"
        }
      ],
      "name": "setEventContract",
      "outputs": [],
      "stateMutability": "nonpayable",
      "type": "function"
    },
    {
      "inputs": [
        {
          "internalType": "uint256",
          "name": "ticketId",
          "type": "uint256"
        },
        {
          "internalType": "uint256",
          "name": "ticketPrice",
          "type": "uint256"
        }
      ],
      "name": "setTicketPrice",
      "outputs": [],
      "stateMutability": "nonpayable",
      "type": "function"
    },
    {
      "inputs": [
        {
          "internalType": "bytes4",
          "name": "interfaceId",
          "type": "bytes4"
        }
      ],
      "name": "supportsInterface",
      "outputs": [
        {
          "internalType": "bool",
          "name": "",
          "type": "bool"
        }
      ],
      "stateMutability": "view",
      "type": "function"
    },
    {
      "inputs": [
        {
          "internalType": "uint256",
          "name": "",
          "type": "uint256"
        }
      ],
      "name": "ticketPrices",
      "outputs": [
        {
          "internalType": "uint256",
          "name": "",
          "type": "uint256"
        }
      ],
      "stateMutability": "view",
      "type": "function"
    },
    {
      "inputs": [
        {
          "internalType": "address",
          "name": "newOwner",
          "type": "address"
        }
      ],
      "name": "transferOwnership",
      "outputs": [],
      "stateMutability": "nonpayable",
      "type": "function"
    },
    {
      "inputs": [
        {
          "internalType": "uint256",
          "name": "",
          "type": "uint256"
        }
      ],
      "name": "uri",
      "outputs": [
        {
          "internalType": "string",
          "name": "",
          "type": "string"
        }
      ],
      "stateMutability": "view",
      "type": "function"
    }
  ],
  "bytecode": "0x608060405234801561001057600080fd5b50604051613c89380380613c8983398181016040528101906100329190610c44565b3382610043816100ef60201b60201c565b50600073ffffffffffffffffffffffffffffffffffffffff168173ffffffffffffffffffffffffffffffffffffffff16036100b65760006040517f1e4fbdf70000000000000000000000000000000000000000000000000000000081526004016100ad9190610ce1565b60405180910390fd5b6100c58161010260201b60201c565b506100e833600083604051806020016040528060008152506101c860201b60201c565b5050611356565b80600290816100fe9190610f13565b5050565b6000600360009054906101000a900473ffffffffffffffffffffffffffffffffffffffff16905081600360006101000a81548173ffffffffffffffffffffffffffffffffffffffff021916908373ffffffffffffffffffffffffffffffffffffffff1602179055508173ffffffffffffffffffffffffffffffffffffffff168173ffffffffffffffffffffffffffffffffffffffff167f8be0079c531659141344cd1fd0a4f28419497f9722a3daafe3b4186f6b6457e060405160405180910390a35050565b600073ffffffffffffffffffffffffffffffffffffffff168473ffffffffffffffffffffffffffffffffffffffff160361023a5760006040517f57f447ce0000000000000000000000000000000000000000000000000000000081526004016102319190610ce1565b60405180910390fd5b60008061024d858561026d60201b60201c565b9150915061026560008784848761029d60201b60201c565b505050505050565b60608060405191506001825283602083015260408201905060018152826020820152604081016040529250929050565b6102af8585858561036760201b60201c565b600073ffffffffffffffffffffffffffffffffffffffff168473ffffffffffffffffffffffffffffffffffffffff16146103605760006102f361071560201b60201c565b9050600184510361034957600061031460008661071d60201b90919060201c565b9050600061032c60008661071d60201b90919060201c565b905061034283898985858961073160201b60201c565b505061035e565b61035d8187878787876108e560201b60201c565b5b505b5050505050565b80518251146103b157815181516040517f5b0599910000000000000000000000000000000000000000000000000000000081526004016103a8929190610ff4565b60405180910390fd5b60006103c161071560201b60201c565b905060005b83518110156105d05760006103e4828661071d60201b90919060201c565b905060006103fb838661071d60201b90919060201c565b9050600073ffffffffffffffffffffffffffffffffffffffff168873ffffffffffffffffffffffffffffffffffffffff161461052857600080600084815260200190815260200160002060008a73ffffffffffffffffffffffffffffffffffffffff1673ffffffffffffffffffffffffffffffffffffffff168152602001908152602001600020549050818110156104d057888183856040517f03dee4c50000000000000000000000000000000000000000000000000000000081526004016104c7949392919061101d565b60405180910390fd5b81810360008085815260200190815260200160002060008b73ffffffffffffffffffffffffffffffffffffffff1673ffffffffffffffffffffffffffffffffffffffff16815260200190815260200160002081905550505b600073ffffffffffffffffffffffffffffffffffffffff168773ffffffffffffffffffffffffffffffffffffffff16146105c3578060008084815260200190815260200160002060008973ffffffffffffffffffffffffffffffffffffffff1673ffffffffffffffffffffffffffffffffffffffff16815260200190815260200160002060008282546105bb9190611091565b925050819055505b50508060010190506103c6565b50600183510361068f5760006105f060008561071d60201b90919060201c565b9050600061060860008561071d60201b90919060201c565b90508573ffffffffffffffffffffffffffffffffffffffff168773ffffffffffffffffffffffffffffffffffffffff168473ffffffffffffffffffffffffffffffffffffffff167fc3d58168c5ae7397731d063d5bbf3d657854427343f4c083240f7aacaa2d0f628585604051610680929190610ff4565b60405180910390a4505061070e565b8373ffffffffffffffffffffffffffffffffffffffff168573ffffffffffffffffffffffffffffffffffffffff168273ffffffffffffffffffffffffffffffffffffffff167f4a39dc06d4c0dbc64b70af90fd698a233a518aa5d07e595d983b8c0526c8f7fb8686604051610705929190611183565b60405180910390a45b5050505050565b600033905090565b600060208202602084010151905092915050565b60008473ffffffffffffffffffffffffffffffffffffffff163b11156108dd578373ffffffffffffffffffffffffffffffffffffffff1663f23a6e6187878686866040518663ffffffff1660e01b815260040161079295949392919061120f565b6020604051808303816000875af19250505080156107ce57506040513d601f19601f820116820180604052508101906107cb91906112c1565b60015b610852573d80600081146107fe576040519150601f19603f3d011682016040523d82523d6000602084013e610803565b606091505b50600081510361084a57846040517f57f447ce0000000000000000000000000000000000000000000000000000000081526004016108419190610ce1565b60405180910390fd5b805181602001fd5b63f23a6e6160e01b7bffffffffffffffffffffffffffffffffffffffffffffffffffffffff1916817bffffffffffffffffffffffffffffffffffffffffffffffffffffffff1916146108db57846040517f57f447ce0000000000000000000000000000000000000000000000000000000081526004016108d29190610ce1565b60405180910390fd5b505b505050505050565b60008473ffffffffffffffffffffffffffffffffffffffff163b1115610a91578373ffffffffffffffffffffffffffffffffffffffff1663bc197c8187878686866040518663ffffffff1660e01b81526004016109469594939291906112ee565b6020604051808303816000875af192505050801561098257506040513d601f19601f8201168201806040525081019061097f91906112c1565b60015b610a06573d80600081146109b2576040519150601f19603f3d011682016040523d82523d6000602084013e6109b7565b606091505b5060008151036109fe57846040517f57f447ce0000000000000000000000000000000000000000000000000000000081526004016109f59190610ce1565b60405180910390fd5b805181602001fd5b63bc197c8160e01b7bffffffffffffffffffffffffffffffffffffffffffffffffffffffff1916817bffffffffffffffffffffffffffffffffffffffffffffffffffffffff191614610a8f57846040517f57f447ce000000000000000000000000000000000000000000000000000000008152600401610a869190610ce1565b60405180910390fd5b505b505050505050565b6000604051905090565b600080fd5b600080fd5b600080fd5b600080fd5b6000601f19601f8301169050919050565b7f4e487b7100000000000000000000000000000000000000000000000000000000600052604160045260246000fd5b610b0082610ab7565b810181811067ffffffffffffffff82111715610b1f57610b1e610ac8565b5b80604052505050565b6000610b32610a99565b9050610b3e8282610af7565b919050565b600067ffffffffffffffff821115610b5e57610b5d610ac8565b5b610b6782610ab7565b9050602081019050919050565b60005b83811015610b92578082015181840152602081019050610b77565b60008484015250505050565b6000610bb1610bac84610b43565b610b28565b905082815260208101848484011115610bcd57610bcc610ab2565b5b610bd8848285610b74565b509392505050565b600082601f830112610bf557610bf4610aad565b5b8151610c05848260208601610b9e565b91505092915050565b6000819050919050565b610c2181610c0e565b8114610c2c57600080fd5b50565b600081519050610c3e81610c18565b92915050565b60008060408385031215610c5b57610c5a610aa3565b5b600083015167ffffffffffffffff811115610c7957610c78610aa8565b5b610c8585828601610be0565b9250506020610c9685828601610c2f565b9150509250929050565b600073ffffffffffffffffffffffffffffffffffffffff82169050919050565b6000610ccb82610ca0565b9050919050565b610cdb81610cc0565b82525050565b6000602082019050610cf66000830184610cd2565b92915050565b600081519050919050565b7f4e487b7100000000000000000000000000000000000000000000000000000000600052602260045260246000fd5b60006002820490506001821680610d4e57607f821691505b602082108103610d6157610d60610d07565b5b50919050565b60008190508160005260206000209050919050565b60006020601f8301049050919050565b600082821b905092915050565b600060088302610dc97fffffffffffffffffffffffffffffffffffffffffffffffffffffffffffffffff82610d8c565b610dd38683610d8c565b95508019841693508086168417925050509392505050565b6000819050919050565b6000610e10610e0b610e0684610c0e565b610deb565b610c0e565b9050919050565b6000819050919050565b610e2a83610df5565b610e3e610e3682610e17565b848454610d99565b825550505050565b600090565b610e53610e46565b610e5e818484610e21565b505050565b5b81811015610e8257610e77600082610e4b565b600181019050610e64565b5050565b601f821115610ec757610e9881610d67565b610ea184610d7c565b81016020851015610eb0578190505b610ec4610ebc85610d7c565b830182610e63565b50505b505050565b600082821c905092915050565b6000610eea60001984600802610ecc565b1980831691505092915050565b6000610f038383610ed9565b9150826002028217905092915050565b610f1c82610cfc565b67ffffffffffffffff811115610f3557610f34610ac8565b5b610f3f8254610d36565b610f4a828285610e86565b600060209050601f831160018114610f7d5760008415610f6b578287015190505b610f758582610ef7565b865550610fdd565b601f198416610f8b86610d67565b60005b82811015610fb357848901518255600182019150602085019450602081019050610f8e565b86831015610fd05784890151610fcc601f891682610ed9565b8355505b6001600288020188555050505b505050505050565b610fee81610c0e565b82525050565b60006040820190506110096000830185610fe5565b6110166020830184610fe5565b9392505050565b60006080820190506110326000830187610cd2565b61103f6020830186610fe5565b61104c6040830185610fe5565b6110596060830184610fe5565b95945050505050565b7f4e487b7100000000000000000000000000000000000000000000000000000000600052601160045260246000fd5b600061109c82610c0e565b91506110a783610c0e565b92508282019050808211156110bf576110be611062565b5b92915050565b600081519050919050565b600082825260208201905092915050565b6000819050602082019050919050565b6110fa81610c0e565b82525050565b600061110c83836110f1565b60208301905092915050565b6000602082019050919050565b6000611130826110c5565b61113a81856110d0565b9350611145836110e1565b8060005b8381101561117657815161115d8882611100565b975061116883611118565b925050600181019050611149565b5085935050505092915050565b6000604082019050818103600083015261119d8185611125565b905081810360208301526111b18184611125565b90509392505050565b600081519050919050565b600082825260208201905092915050565b60006111e1826111ba565b6111eb81856111c5565b93506111fb818560208601610b74565b61120481610ab7565b840191505092915050565b600060a0820190506112246000830188610cd2565b6112316020830187610cd2565b61123e6040830186610fe5565b61124b6060830185610fe5565b818103608083015261125d81846111d6565b90509695505050505050565b60007fffffffff0000000000000000000000000000000000000000000000000000000082169050919050565b61129e81611269565b81146112a957600080fd5b50565b6000815190506112bb81611295565b92915050565b6000602082840312156112d7576112d6610aa3565b5b60006112e5848285016112ac565b91505092915050565b600060a0820190506113036000830188610cd2565b6113106020830187610cd2565b81810360408301526113228186611125565b905081810360608301526113368185611125565b9050818103608083015261134a81846111d6565b90509695505050505050565b612924806113656000396000f3fe608060405234801561001057600080fd5b50600436106101155760003560e01c8063a22cb465116100a2578063e985e9c511610071578063e985e9c5146102de578063f06fc9611461030e578063f242432a1461033e578063f2fde38b1461035a578063f5298aca1461037657610115565b8063a22cb46514610258578063aa4c4cc114610274578063e274fd2414610290578063e44d311b146102ae57610115565b80634e1273f4116100e95780634e1273f4146101c6578063656f0f0f146101f6578063715018a614610212578063860c57291461021c5780638da5cb5b1461023a57610115565b8062fdd58e1461011a57806301ffc9a71461014a5780630e89341c1461017a5780632eb2c2d6146101aa575b600080fd5b610134600480360381019061012f9190611b53565b610392565b6040516101419190611ba2565b60405180910390f35b610164600480360381019061015f9190611c15565b6103ec565b6040516101719190611c5d565b60405180910390f35b610194600480360381019061018f9190611c78565b6104ce565b6040516101a19190611d35565b60405180910390f35b6101c460048036038101906101bf9190611f54565b610562565b005b6101e060048036038101906101db91906120e6565b61060a565b6040516101ed919061221c565b60405180910390f35b610210600480360381019061020b919061223e565b610713565b005b61021a61081d565b005b610224610831565b6040516102319190611ba2565b60405180910390f35b610242610836565b60405161024f919061227a565b60405180910390f35b610272600480360381019061026d91906122c1565b610860565b005b61028e60048036038101906102899190612301565b610876565b005b6102986108dd565b6040516102a5919061227a565b60405180910390f35b6102c860048036038101906102c39190611c78565b610903565b6040516102d59190611ba2565b60405180910390f35b6102f860048036038101906102f39190612341565b61091b565b6040516103059190611c5d565b60405180910390f35b61032860048036038101906103239190611c78565b6109af565b6040516103359190611ba2565b60405180910390f35b61035860048036038101906103539190612381565b6109cc565b005b610374600480360381019061036f919061223e565b610aad565b005b610390600480360381019061038b9190612418565b610b33565b005b600080600083815260200190815260200160002060008473ffffffffffffffffffffffffffffffffffffffff1673ffffffffffffffffffffffffffffffffffffffff16815260200190815260200160002054905092915050565b60007fd9b67a26000000000000000000000000000000000000000000000000000000007bffffffffffffffffffffffffffffffffffffffffffffffffffffffff1916827bffffffffffffffffffffffffffffffffffffffffffffffffffffffff191614806104b757507f0e89341c000000000000000000000000000000000000000000000000000000007bffffffffffffffffffffffffffffffffffffffffffffffffffffffff1916827bffffffffffffffffffffffffffffffffffffffffffffffffffffffff1916145b806104c757506104c682610c10565b5b9050919050565b6060600280546104dd9061249a565b80601f01602080910402602001604051908101604052809291908181526020018280546105099061249a565b80156105565780601f1061052b57610100808354040283529160200191610556565b820191906000526020600020905b81548152906001019060200180831161053957829003601f168201915b50505050509050919050565b600061056c610c7a565b90508073ffffffffffffffffffffffffffffffffffffffff168673ffffffffffffffffffffffffffffffffffffffff16141580156105b157506105af868261091b565b155b156105f55780866040517fe237d9220000000000000000000000000000000000000000000000000000000081526004016105ec9291906124cb565b60405180910390fd5b6106028686868686610c82565b505050505050565b6060815183511461065657815183516040517f5b05999100000000000000000000000000000000000000000000000000000000815260040161064d9291906124f4565b60405180910390fd5b6000835167ffffffffffffffff81111561067357610672611d5c565b5b6040519080825280602002602001820160405280156106a15781602001602082028036833780820191505090505b50905060005b8451811015610708576106de6106c68287610d7a90919063ffffffff16565b6106d98387610d8e90919063ffffffff16565b610392565b8282815181106106f1576106f061251d565b5b6020026020010181815250508060010190506106a7565b508091505092915050565b61071b610da2565b600073ffffffffffffffffffffffffffffffffffffffff16600460009054906101000a900473ffffffffffffffffffffffffffffffffffffffff1673ffffffffffffffffffffffffffffffffffffffff16146107ac576040517f08c379a00000000000000000000000000000000000000000000000000000000081526004016107a390612598565b60405180910390fd5b80600460006101000a81548173ffffffffffffffffffffffffffffffffffffffff021916908373ffffffffffffffffffffffffffffffffffffffff16021790555061081a600460009054906101000a900473ffffffffffffffffffffffffffffffffffffffff166001610860565b50565b610825610da2565b61082f6000610e29565b565b600081565b6000600360009054906101000a900473ffffffffffffffffffffffffffffffffffffffff16905090565b61087261086b610c7a565b8383610eef565b5050565b61087e610da2565b600081036108c1576040517f08c379a00000000000000000000000000000000000000000000000000000000081526004016108b890612604565b60405180910390fd5b8060056000848152602001908152602001600020819055505050565b600460009054906101000a900473ffffffffffffffffffffffffffffffffffffffff1681565b60056020528060005260406000206000915090505481565b6000600160008473ffffffffffffffffffffffffffffffffffffffff1673ffffffffffffffffffffffffffffffffffffffff16815260200190815260200160002060008373ffffffffffffffffffffffffffffffffffffffff1673ffffffffffffffffffffffffffffffffffffffff16815260200190815260200160002060009054906101000a900460ff16905092915050565b600060056000838152602001908152602001600020549050919050565b600460009054906101000a900473ffffffffffffffffffffffffffffffffffffffff1673ffffffffffffffffffffffffffffffffffffffff163373ffffffffffffffffffffffffffffffffffffffff161480610a5a5750610a2b610836565b73ffffffffffffffffffffffffffffffffffffffff163373ffffffffffffffffffffffffffffffffffffffff16145b610a99576040517f08c379a0000000000000000000000000000000000000000000000000000000008152600401610a9090612696565b60405180910390fd5b610aa6858585858561105f565b5050505050565b610ab5610da2565b600073ffffffffffffffffffffffffffffffffffffffff168173ffffffffffffffffffffffffffffffffffffffff1603610b275760006040517f1e4fbdf7000000000000000000000000000000000000000000000000000000008152600401610b1e919061227a565b60405180910390fd5b610b3081610e29565b50565b600460009054906101000a900473ffffffffffffffffffffffffffffffffffffffff1673ffffffffffffffffffffffffffffffffffffffff163373ffffffffffffffffffffffffffffffffffffffff161480610bc15750610b92610836565b73ffffffffffffffffffffffffffffffffffffffff163373ffffffffffffffffffffffffffffffffffffffff16145b610c00576040517f08c379a0000000000000000000000000000000000000000000000000000000008152600401610bf790612696565b60405180910390fd5b610c0b838383611107565b505050565b60007f01ffc9a7000000000000000000000000000000000000000000000000000000007bffffffffffffffffffffffffffffffffffffffffffffffffffffffff1916827bffffffffffffffffffffffffffffffffffffffffffffffffffffffff1916149050919050565b600033905090565b600073ffffffffffffffffffffffffffffffffffffffff168473ffffffffffffffffffffffffffffffffffffffff1603610cf45760006040517f57f447ce000000000000000000000000000000000000000000000000000000008152600401610ceb919061227a565b60405180910390fd5b600073ffffffffffffffffffffffffffffffffffffffff168573ffffffffffffffffffffffffffffffffffffffff1603610d665760006040517f01a83514000000000000000000000000000000000000000000000000000000008152600401610d5d919061227a565b60405180910390fd5b610d7385858585856111ae565b5050505050565b600060208202602084010151905092915050565b600060208202602084010151905092915050565b610daa610c7a565b73ffffffffffffffffffffffffffffffffffffffff16610dc8610836565b73ffffffffffffffffffffffffffffffffffffffff1614610e2757610deb610c7a565b6040517f118cdaa7000000000000000000000000000000000000000000000000000000008152600401610e1e919061227a565b60405180910390fd5b565b6000600360009054906101000a900473ffffffffffffffffffffffffffffffffffffffff16905081600360006101000a81548173ffffffffffffffffffffffffffffffffffffffff021916908373ffffffffffffffffffffffffffffffffffffffff1602179055508173ffffffffffffffffffffffffffffffffffffffff168173ffffffffffffffffffffffffffffffffffffffff167f8be0079c531659141344cd1fd0a4f28419497f9722a3daafe3b4186f6b6457e060405160405180910390a35050565b600073ffffffffffffffffffffffffffffffffffffffff168273ffffffffffffffffffffffffffffffffffffffff1603610f615760006040517fced3e100000000000000000000000000000000000000000000000000000000008152600401610f58919061227a565b60405180910390fd5b80600160008573ffffffffffffffffffffffffffffffffffffffff1673ffffffffffffffffffffffffffffffffffffffff16815260200190815260200160002060008473ffffffffffffffffffffffffffffffffffffffff1673ffffffffffffffffffffffffffffffffffffffff16815260200190815260200160002060006101000a81548160ff0219169083151502179055508173ffffffffffffffffffffffffffffffffffffffff168373ffffffffffffffffffffffffffffffffffffffff167f17307eab39ab6107e8899845ad3d59bd9653f200f220920489ca2b5937696c31836040516110529190611c5d565b60405180910390a3505050565b6000611069610c7a565b90508073ffffffffffffffffffffffffffffffffffffffff168673ffffffffffffffffffffffffffffffffffffffff16141580156110ae57506110ac868261091b565b155b156110f25780866040517fe237d9220000000000000000000000000000000000000000000000000000000081526004016110e99291906124cb565b60405180910390fd5b6110ff8686868686611260565b505050505050565b600073ffffffffffffffffffffffffffffffffffffffff168373ffffffffffffffffffffffffffffffffffffffff16036111795760006040517f01a83514000000000000000000000000000000000000000000000000000000008152600401611170919061227a565b60405180910390fd5b600080611186848461136b565b915091506111a78560008484604051806020016040528060008152506111ae565b5050505050565b6111ba8585858561139b565b600073ffffffffffffffffffffffffffffffffffffffff168473ffffffffffffffffffffffffffffffffffffffff16146112595760006111f8610c7a565b90506001845103611248576000611219600086610d8e90919063ffffffff16565b90506000611231600086610d8e90919063ffffffff16565b9050611241838989858589611743565b5050611257565b6112568187878787876118f7565b5b505b5050505050565b600073ffffffffffffffffffffffffffffffffffffffff168473ffffffffffffffffffffffffffffffffffffffff16036112d25760006040517f57f447ce0000000000000000000000000000000000000000000000000000000081526004016112c9919061227a565b60405180910390fd5b600073ffffffffffffffffffffffffffffffffffffffff168573ffffffffffffffffffffffffffffffffffffffff16036113445760006040517f01a8351400000000000000000000000000000000000000000000000000000000815260040161133b919061227a565b60405180910390fd5b600080611351858561136b565b9150915061136287878484876111ae565b50505050505050565b60608060405191506001825283602083015260408201905060018152826020820152604081016040529250929050565b80518251146113e557815181516040517f5b0599910000000000000000000000000000000000000000000000000000000081526004016113dc9291906124f4565b60405180910390fd5b60006113ef610c7a565b905060005b83518110156115fe5760006114128286610d8e90919063ffffffff16565b905060006114298386610d8e90919063ffffffff16565b9050600073ffffffffffffffffffffffffffffffffffffffff168873ffffffffffffffffffffffffffffffffffffffff161461155657600080600084815260200190815260200160002060008a73ffffffffffffffffffffffffffffffffffffffff1673ffffffffffffffffffffffffffffffffffffffff168152602001908152602001600020549050818110156114fe57888183856040517f03dee4c50000000000000000000000000000000000000000000000000000000081526004016114f594939291906126b6565b60405180910390fd5b81810360008085815260200190815260200160002060008b73ffffffffffffffffffffffffffffffffffffffff1673ffffffffffffffffffffffffffffffffffffffff16815260200190815260200160002081905550505b600073ffffffffffffffffffffffffffffffffffffffff168773ffffffffffffffffffffffffffffffffffffffff16146115f1578060008084815260200190815260200160002060008973ffffffffffffffffffffffffffffffffffffffff1673ffffffffffffffffffffffffffffffffffffffff16815260200190815260200160002060008282546115e9919061272a565b925050819055505b50508060010190506113f4565b5060018351036116bd57600061161e600085610d8e90919063ffffffff16565b90506000611636600085610d8e90919063ffffffff16565b90508573ffffffffffffffffffffffffffffffffffffffff168773ffffffffffffffffffffffffffffffffffffffff168473ffffffffffffffffffffffffffffffffffffffff167fc3d58168c5ae7397731d063d5bbf3d657854427343f4c083240f7aacaa2d0f6285856040516116ae9291906124f4565b60405180910390a4505061173c565b8373ffffffffffffffffffffffffffffffffffffffff168573ffffffffffffffffffffffffffffffffffffffff168273ffffffffffffffffffffffffffffffffffffffff167f4a39dc06d4c0dbc64b70af90fd698a233a518aa5d07e595d983b8c0526c8f7fb868660405161173392919061275e565b60405180910390a45b5050505050565b60008473ffffffffffffffffffffffffffffffffffffffff163b11156118ef578373ffffffffffffffffffffffffffffffffffffffff1663f23a6e6187878686866040518663ffffffff1660e01b81526004016117a49594939291906127ea565b6020604051808303816000875af19250505080156117e057506040513d601f19601f820116820180604052508101906117dd9190612859565b60015b611864573d8060008114611810576040519150601f19603f3d011682016040523d82523d6000602084013e611815565b606091505b50600081510361185c57846040517f57f447ce000000000000000000000000000000000000000000000000000000008152600401611853919061227a565b60405180910390fd5b805181602001fd5b63f23a6e6160e01b7bffffffffffffffffffffffffffffffffffffffffffffffffffffffff1916817bffffffffffffffffffffffffffffffffffffffffffffffffffffffff1916146118ed57846040517f57f447ce0000000000000000000000000000000000000000000000000000000081526004016118e4919061227a565b60405180910390fd5b505b505050505050565b60008473ffffffffffffffffffffffffffffffffffffffff163b1115611aa3578373ffffffffffffffffffffffffffffffffffffffff1663bc197c8187878686866040518663ffffffff1660e01b8152600401611958959493929190612886565b6020604051808303816000875af192505050801561199457506040513d601f19601f820116820180604052508101906119919190612859565b60015b611a18573d80600081146119c4576040519150601f19603f3d011682016040523d82523d6000602084013e6119c9565b606091505b506000815103611a1057846040517f57f447ce000000000000000000000000000000000000000000000000000000008152600401611a07919061227a565b60405180910390fd5b805181602001fd5b63bc197c8160e01b7bffffffffffffffffffffffffffffffffffffffffffffffffffffffff1916817bffffffffffffffffffffffffffffffffffffffffffffffffffffffff191614611aa157846040517f57f447ce000000000000000000000000000000000000000000000000000000008152600401611a98919061227a565b60405180910390fd5b505b505050505050565b6000604051905090565b600080fd5b600080fd5b600073ffffffffffffffffffffffffffffffffffffffff82169050919050565b6000611aea82611abf565b9050919050565b611afa81611adf565b8114611b0557600080fd5b50565b600081359050611b1781611af1565b92915050565b6000819050919050565b611b3081611b1d565b8114611b3b57600080fd5b50565b600081359050611b4d81611b27565b92915050565b60008060408385031215611b6a57611b69611ab5565b5b6000611b7885828601611b08565b9250506020611b8985828601611b3e565b9150509250929050565b611b9c81611b1d565b82525050565b6000602082019050611bb76000830184611b93565b92915050565b60007fffffffff0000000000000000000000000000000000000000000000000000000082169050919050565b611bf281611bbd565b8114611bfd57600080fd5b50565b600081359050611c0f81611be9565b92915050565b600060208284031215611c2b57611c2a611ab5565b5b6000611c3984828501611c00565b91505092915050565b60008115159050919050565b611c5781611c42565b82525050565b6000602082019050611c726000830184611c4e565b92915050565b600060208284031215611c8e57611c8d611ab5565b5b6000611c9c84828501611b3e565b91505092915050565b600081519050919050565b600082825260208201905092915050565b60005b83811015611cdf578082015181840152602081019050611cc4565b60008484015250505050565b6000601f19601f8301169050919050565b6000611d0782611ca5565b611d118185611cb0565b9350611d21818560208601611cc1565b611d2a81611ceb565b840191505092915050565b60006020820190508181036000830152611d4f8184611cfc565b905092915050565b600080fd5b7f4e487b7100000000000000000000000000000000000000000000000000000000600052604160045260246000fd5b611d9482611ceb565b810181811067ffffffffffffffff82111715611db357611db2611d5c565b5b80604052505050565b6000611dc6611aab565b9050611dd28282611d8b565b919050565b600067ffffffffffffffff821115611df257611df1611d5c565b5b602082029050602081019050919050565b600080fd5b6000611e1b611e1684611dd7565b611dbc565b90508083825260208201905060208402830185811115611e3e57611e3d611e03565b5b835b81811015611e675780611e538882611b3e565b845260208401935050602081019050611e40565b5050509392505050565b600082601f830112611e8657611e85611d57565b5b8135611e96848260208601611e08565b91505092915050565b600080fd5b600067ffffffffffffffff821115611ebf57611ebe611d5c565b5b611ec882611ceb565b9050602081019050919050565b82818337600083830152505050565b6000611ef7611ef284611ea4565b611dbc565b905082815260208101848484011115611f1357611f12611e9f565b5b611f1e848285611ed5565b509392505050565b600082601f830112611f3b57611f3a611d57565b5b8135611f4b848260208601611ee4565b91505092915050565b600080600080600060a08688031215611f7057611f6f611ab5565b5b6000611f7e88828901611b08565b9550506020611f8f88828901611b08565b945050604086013567ffffffffffffffff811115611fb057611faf611aba565b5b611fbc88828901611e71565b935050606086013567ffffffffffffffff811115611fdd57611fdc611aba565b5b611fe988828901611e71565b925050608086013567ffffffffffffffff81111561200a57612009611aba565b5b61201688828901611f26565b9150509295509295909350565b600067ffffffffffffffff82111561203e5761203d611d5c565b5b602082029050602081019050919050565b600061206261205d84612023565b611dbc565b9050808382526020820190506020840283018581111561208557612084611e03565b5b835b818110156120ae578061209a8882611b08565b845260208401935050602081019050612087565b5050509392505050565b600082601f8301126120cd576120cc611d57565b5b81356120dd84826020860161204f565b91505092915050565b600080604083850312156120fd576120fc611ab5565b5b600083013567ffffffffffffffff81111561211b5761211a611aba565b5b612127858286016120b8565b925050602083013567ffffffffffffffff81111561214857612147611aba565b5b61215485828601611e71565b9150509250929050565b600081519050919050565b600082825260208201905092915050565b6000819050602082019050919050565b61219381611b1d565b82525050565b60006121a5838361218a565b60208301905092915050565b6000602082019050919050565b60006121c98261215e565b6121d38185612169565b93506121de8361217a565b8060005b8381101561220f5781516121f68882612199565b9750612201836121b1565b9250506001810190506121e2565b5085935050505092915050565b6000602082019050818103600083015261223681846121be565b905092915050565b60006020828403121561225457612253611ab5565b5b600061226284828501611b08565b91505092915050565b61227481611adf565b82525050565b600060208201905061228f600083018461226b565b92915050565b61229e81611c42565b81146122a957600080fd5b50565b6000813590506122bb81612295565b92915050565b600080604083850312156122d8576122d7611ab5565b5b60006122e685828601611b08565b92505060206122f7858286016122ac565b9150509250929050565b6000806040838503121561231857612317611ab5565b5b600061232685828601611b3e565b925050602061233785828601611b3e565b9150509250929050565b6000806040838503121561235857612357611ab5565b5b600061236685828601611b08565b925050602061237785828601611b08565b9150509250929050565b600080600080600060a0868803121561239d5761239c611ab5565b5b60006123ab88828901611b08565b95505060206123bc88828901611b08565b94505060406123cd88828901611b3e565b93505060606123de88828901611b3e565b925050608086013567ffffffffffffffff8111156123ff576123fe611aba565b5b61240b88828901611f26565b9150509295509295909350565b60008060006060848603121561243157612430611ab5565b5b600061243f86828701611b08565b935050602061245086828701611b3e565b925050604061246186828701611b3e565b9150509250925092565b7f4e487b7100000000000000000000000000000000000000000000000000000000600052602260045260246000fd5b600060028204905060018216806124b257607f821691505b6020821081036124c5576124c461246b565b5b50919050565b60006040820190506124e0600083018561226b565b6124ed602083018461226b565b9392505050565b60006040820190506125096000830185611b93565b6125166020830184611b93565b9392505050565b7f4e487b7100000000000000000000000000000000000000000000000000000000600052603260045260246000fd5b7f4576656e7420636f6e747261637420616c726561647920736574000000000000600082015250565b6000612582601a83611cb0565b915061258d8261254c565b602082019050919050565b600060208201905081810360008301526125b181612575565b9050919050565b7f5469636b65742070726963652063616e6e6f7420626520300000000000000000600082015250565b60006125ee601883611cb0565b91506125f9826125b8565b602082019050919050565b6000602082019050818103600083015261261d816125e1565b9050919050565b7f4f6e6c79206576656e7420636f6e7472616374206f72206f776e65722063616e60008201527f207472616e73666572207469636b657473000000000000000000000000000000602082015250565b6000612680603183611cb0565b915061268b82612624565b604082019050919050565b600060208201905081810360008301526126af81612673565b9050919050565b60006080820190506126cb600083018761226b565b6126d86020830186611b93565b6126e56040830185611b93565b6126f26060830184611b93565b95945050505050565b7f4e487b7100000000000000000000000000000000000000000000000000000000600052601160045260246000fd5b600061273582611b1d565b915061274083611b1d565b9250828201905080821115612758576127576126fb565b5b92915050565b6000604082019050818103600083015261277881856121be565b9050818103602083015261278c81846121be565b90509392505050565b600081519050919050565b600082825260208201905092915050565b60006127bc82612795565b6127c681856127a0565b93506127d6818560208601611cc1565b6127df81611ceb565b840191505092915050565b600060a0820190506127ff600083018861226b565b61280c602083018761226b565b6128196040830186611b93565b6128266060830185611b93565b818103608083015261283881846127b1565b90509695505050505050565b60008151905061285381611be9565b92915050565b60006020828403121561286f5761286e611ab5565b5b600061287d84828501612844565b91505092915050565b600060a08201905061289b600083018861226b565b6128a8602083018761226b565b81810360408301526128ba81866121be565b905081810360608301526128ce81856121be565b905081810360808301526128e281846127b1565b9050969550505050505056fea26469706673582212206cb94c48ce04a42567e2e5b28b892a8da3bc82595b05dd4330e6b8d8f55a38d564736f6c634300081c0033",
  "linkReferences": {},
  "deployedLinkReferences": {}
}